:020000040800F2
:10000000C00400204501000835020008370200083E
:100010003B0200083F020008430200080000000005
:10002000000000000000000000000000470200087F
:1000300049020008000000004B0200084D020008C1
:100040005F0100085F0100085F0100085F01000810
:100050005F0100085F0100085F0100085F01000800
:100060005F0100085F0100085F010008E10500086A
:100070005F0100085F0100085F0100085F010008E0
:100080005F0100085F0100085F0100085F010008D0
:100090005F0100085F0100085F0100085F010008C0
:1000A0005F010008FF0500085F0100085F0100080C
:1000B0005F0100085F0100085F0100085F010008A0
:1000C0005F0100085F0100085F0100085F01000890
:1000D0005F0100085F0100085F0100085F01000880
:1000E0005F0100085F0100085F0100085F01000870
:1000F0005F0100085F0100085F0100085F01000860
:100100005F0100085F0100085F0100085F0100084F
:100110005F0100085F0100085F0100085F0100083F
:100120005F0100085F0100085F0100085F0100082F
:10013000DFF80CD003F0C6F8004800477B01000848
:10014000C00400200648804706480047FEE7FEE757
:10015000FEE7FEE7FEE7FEE7FEE7FEE7FEE7FEE777
:100160002B2A00083101000801B502E00098401E6A
:10017000009000980028F9D108BD08B54FF47A66C0
:100180006427B046B9464FF0000A4FF0000B00F06C
:10019000F3F900F073FB2048FFF7E6FF01211F4849
:1001A00001F099F900BF1E4800780028FBD01D48D7
:1001B00004684568F11B4144A1EB090002F07CFE94
:1001C00001460090184802F0B1FC1849086000F0A0
:1001D0003FF800F029FA1DE01548007800B919E051
:1001E0000020134908700E48007890B100200C4997
:1001F00008700121094801F06EF90A480068A0EB77
:10020000040A08484068A0EB050B5946504600F028
:1002100043FA00BFE0E70000FFFF0F0000240140A9
:100220000C0000200400002000000C44000000200E
:100230000D000020704700BFFEE700BFFEE700BFD3
:10024000FEE700BFFEE77047704770477047000049
:1002500000B585B0012144F2040000F093FC4FF496
:100260000070ADF8100018208DF8130003208DF8F1
:10027000120004A9754800F049FD4FF48060ADF804
:10028000100004208DF8130004A9704800F03EFD12
:100290004FF4E13000900020ADF80400ADF8060006
:1002A000ADF80800ADF80C000C20ADF80A00694666
:1002B000674800F0BCFE0121654800F044FF05B02E
:1002C00000BD70B504460D46E1B2614800F0A8FFDC
:1002D00000BF5F48008800F080000028F9D0204669
:1002E00070BDF0B503460D461646002729460A2E76
:1002F00003D0002008702846F0BD33B9302001F843
:10030000010B002008702846F6E7002B03DA2D20A9
:1003100001F8010B5B4242F210720DE093FBF2F424
:1003200004B937B104F1300001F8010B04FB1233BA
:1003300001270A2092FBF0F2002AEFDC002008706F
:100340002846D9E70FB470B586B006460CA80190D0
:1003500073E00B9800785C281CD10B98401C0B9024
:1003600000786E2809D072280FD10D21304600F098
:1003700057FF0B98401C0B900BE00A21304600F011
:100380004FFF0B98401C0B9003E00B98401C0B9008
:1003900000BF4BE00B980078252840D10B98401CFB
:1003A0000B900078642818D0732833D1019810C8B6
:1003B00001900BE02178304600F032FF00BF402171
:1003C000304600F09BFF0028F9D0641C20780028FC
:1003D000F0D10B98401C0B9020E0019820C80190B0
:1003E0000A2202A92846FFF77CFF02AC0BE0217825
:1003F000304600F015FF00BF4021304600F07EFF80
:100400000028F9D0641C20780028F0D10B98401CFB
:100410000B9003E00B98401C0B9000BF06E00B987C
:1004200010F8011B0B90304600F0FAFE00BF40218F
:10043000304600F063FF0028F9D00B9800780028C0
:1004400087D106B070BC5DF814FB000000080140C5
:100450000038014008B50121084600F086FB012163
:100460004FF4017000F08EFB0320ADF80000002077
:100470008DF803006946434800F048FC08BD00B50C
:1004800091B0414801F0BCF94048069040480790BF
:10049000002008904020099000200A9080200B90B6
:1004A00040000C9080000D9020200E9000020F90D4
:1004B0000020109006A9344801F044FA0020019071
:1004C00001208DF808008DF809004FF4602003909A
:1004D0000020049002208DF8140001A92B484C380C
:1004E00000F08DFF4FF4404000F0B0FA07230222E5
:1004F000012126484C3801F01AF807230122002177
:1005000022484C3801F013F8012120484C3800F003
:10051000ADFF01211D484C3800F09DFF1B484C38B1
:1005200000F0BBFF00BF19484C3800F0BBFF0028AB
:10053000F9D116484C3800F0BFFF00BF13484C38C3
:1005400000F0BFFF0028F9D101210F4801F025FA82
:10055000012202210C4801F02CFA0B208DF800003A
:1005600001208DF801008DF802008DF80300684627
:1005700002F083F911B000BD10B5FFF76BFFFFF774
:100580007EFF10BD00080140080002404C240140DD
:100590004000002008B500220092002014E0002155
:1005A00008E00C4A02EB810232F81020009B1A444A
:1005B0000092491C2029F4DB009A5209064B43F8AB
:1005C000202000220092401C0228E8DB0122034B7D
:1005D0001A7008BD40000020040000200C0000201C
:1005E00010B5022001F013FA28B100210B4800F0E9
:1005F00072FFFFF7CFFF022001F01DFA10BD10B50A
:100600000121074802F01FF910B1012005490870C7
:100610000121034802F028F910BD00000024014028
:10062000002C01400D0000201FB50121C80200F080
:10063000A9FA41F61F40ADF800000020ADF8020015
:100640004FF47A70ADF804000020ADF806008DF884
:10065000080069460D4801F0D1FA19208DF80C0008
:1006600000208DF80D008DF80E0001208DF80F0090
:1006700003A802F002F901221146044801F035FEF8
:100680000121024801F016FE1FBD0000002C0140B0
:10069000002800DA404270472DE9F04F87B0064647
:1006A0000C464E2006903046FFF7F2FF322804DC5D
:1006B0002046FFF7EDFF32287EDD002E35DD002CD1
:1006C0001CDA304602F0F8FB8346204602F0F4FBC9
:1006D0005946019002F02AFA824602F026FCCDE942
:1006E000020103F0E3FA574A574BCDE9040102F047
:1006F0005BFA074602F02CFC05463DE0304602F06E
:10070000DBFB8346204602F0D7FB5946039002F0FC
:100710000DFA824602F009FCCDE9040103F0C6FAA5
:10072000074602F015FC054626E0002E1BDA30468F
:1007300002F0C2FB0290204602F0BEFB019002993B
:1007400002F0F4F9039002F0F0FB074603F0AEFA72
:100750003C4A3E4BCDE9040102F026FA824602F003
:10076000F7FB054608E0002C01DD394D04E0002CC4
:1007700001DA384D00E000253748006802F0D5FB6B
:100780000746884606FB06F104FB041002F09DFBB9
:10079000CDE9020103F09CFB3A464346CDE9040152
:1007A00002F0A9FA824602F0A1FB8146B9F18C0F52
:1007B00001DD4FF08C0900E02AE02021274800F0FD
:1007C00038FB08B1412006904021244800F031FB5D
:1007D00008B143200690284602F0A7FB194A1B4B9C
:1007E000CDE9040102F0F9FA074600221C4B02F0A1
:1007F00082FA824602F0ACFB0546284602F095FBE1
:100800004A46CDE9000117A0069902F06DFD15E0FA
:100810002021124800F00DFB08B141200690402134
:100820000E4800F006FB08B143200690002100911D
:100830000A4601910BA0069902F056FD07B0BDE8EB
:10084000F08F000097D17E5AFB211940FB2109400F
:10085000DB0FC93FE4CB964000000020000C0140B4
:1008600000806640636F6D25632C2C2C25642C2C36
:100870002C2566656E640D0A0000000008B5012194
:10088000082000F07FF96020ADF8000028208DF8E6
:10089000030003208DF802006946024800F036FA92
:1008A00008BD0000000C0140DF48006840F0010076
:1008B000DD49086008464068DC490840DA4948607C
:1008C00008460068DA490840D749086008460068C9
:1008D00020F4802008600846406820F4FE0048604C
:1008E0004FF41F0088607047CF49096821F48031B8
:1008F000CD4A11601146096821F480211160B0F5DC
:10090000803F03D0B0F5802F0ED106E0C6490968BC
:1009100041F48031C44A116007E0C349096841F4D9
:10092000A021C14A116000E000BF00BF704710B5B0
:1009300001460022002300204A11012A02D1BA4CAC
:10094000236806E0022A02D1B74C236A01E0B64CC4
:10095000636A01F01F02012494401C400CB1012085
:1009600000E0002010BD38B50020009000240025D4
:1009700000BF3120FFF7DBFF05460098401C0090C8
:100980000098B0F5A06F01D0002DF2D03120FFF714
:10099000CEFF08B1012400E00024204638BD014606
:1009A0000020A14A106820F0F80040EAC100106061
:1009B0007047A04908607047024600209A4B58686B
:1009C00020F47C1042EA01031843974B58607047AB
:1009D00098490866704701460020934A506820F005
:1009E00003000843506070478F48406800F00C00D7
:1009F0007047014600208C4A506820F0F000084300
:100A00005060704701460020874A506820F4E0603B
:100A100008435060704701460020834A506820F424
:100A2000605040EAC1005060704729B17E4A527A56
:100A300002437D4B5A7204E07B4A527A82437A4BDE
:100A40005A7270477B49D8310860704701460020D0
:100A5000754A506820F440400843506070470021B8
:100A6000714A20321170704A82F82010012802D099
:100A700004280AD104E001216B4A2032117005E0FC
:100A80000521694A2032117000E000BF00BF7047A5
:100A90006949086070476449096A0143624A116202
:100AA0007047654944390860704730B5002100221D
:100AB000002400235C4D6D6805F00C0121B1042970
:100AC00005D0082923D105E05C4D056022E05B4D8F
:100AD00005601FE0544D6D6805F47012524D6D684D
:100AE00005F48034022505EB92421CB9544D554360
:100AF00005600BE04C4D6D6805F400351DB1504D9F
:100B00005543056002E04D4D5543056002E04B4DF5
:100B1000056000BF00BF444D6D6805F0F001090994
:100B2000484D6B5C0568DD4045603F4D6D6805F4E0
:100B3000E061090A434D6B5C4568DD4085603A4DD4
:100B40006D6805F46051C90A3E4D6B5C4568DD4037
:100B5000C560354D6D6805F44041890B3A4D6B5CBD
:100B6000C568B5FBF3F5056130BD29B12E4A526960
:100B700002432D4B5A6104E02B4A526982432A4BAF
:100B80005A61704729B1284A92690243264B9A61FB
:100B900004E0254A92698243234B9A61704729B148
:100BA000214AD2690243204BDA6104E01E4AD2692D
:100BB00082431D4BDA61704729B11B4AD268024358
:100BC000194BDA6004E0184AD2688243164BDA60A7
:100BD000704729B1144A12690243134B1A6104E0A9
:100BE000114A12698243104B1A6170471249403909
:100BF000086070470F49C86470470B49C871704757
:100C00000948406A40F080700749486270470146D1
:100C10000020054A92680A400AB1012000E0002045
:100C20007047014988727047001002400000FFF8C9
:100C3000FFFFF6FE000042428004424200127A00AA
:100C400000093D000E0000201E00002010B50446E3
:100C5000CC48844208D101210420FFF7ADFF0021D8
:100C60000420FFF7A9FF46E0C748844208D10121CC
:100C70000820FFF7A1FF00210820FFF79DFF3AE0C1
:100C8000C248844208D101211020FFF795FF0021BE
:100C90001020FFF791FF2EE0BD48844208D10121CA
:100CA0002020FFF789FF00212020FFF785FF22E0A9
:100CB000B848844208D101214020FFF77DFF002180
:100CC0004020FFF779FF16E0B348844208D10121A4
:100CD0008020FFF771FF00218020FFF76DFF0AE001
:100CE000AE48844207D101218015FFF765FF00213E
:100CF000A015FFF761FF10BD10B501210846FFF7F1
:100D00005BFF00210120FFF757FF10BD2DE9F041E7
:100D1000024600250026002000230024002791F829
:100D200003C00CF00F0591F803C00CF0100CBCF1DF
:100D3000000F03D091F802C04CEA050591F800C0FD
:100D4000BCF1000F31D0146800202BE04FF0010CF3
:100D50000CFA00F3B1F800C00CEA03069E4220D161
:100D600083004FF00F0C0CFA03F7BC4305FA03FCA9
:100D70004CEA040491F803C0BCF1280F06D14FF0EF
:100D8000010C0CFA00FCC2F814C00AE091F803C090
:100D9000BCF1480F05D14FF0010C0CFA00FCC2F871
:100DA00010C0401C0828D1D31460B1F800C0BCF1B9
:100DB000FF0F34DD546800202EE000F1080C4FF0E6
:100DC000010808FA0CF3B1F800C00CEA03069E42D1
:100DD00021D183004FF00F0C0CFA03F7BC4305FA46
:100DE00003FC4CEA040491F803C0BCF1280F05D1C0
:100DF00000F1080C08FA0CF8C2F8148091F803C04E
:100E0000BCF1480F07D100F1080C4FF0010808FAB7
:100E10000CF8C2F81080401C0828CED35460BDE8FE
:100E2000F0814FF6FF710180022181700421C170B1
:100E300070470246002093680B400BB1012000E090
:100E4000002070470146886880B270470246002043
:100E5000D3680B400BB1012000E000207047014631
:100E6000C86880B2704701617047416170470AB13C
:100E7000016100E041617047C16070474FF480320A
:100E80000A43826181618261826982697047024698
:100E90000020434B18684FF68073184040EA021058
:100EA00008433F4B186070473E49C8617047F0B532
:100EB0000A46002300240021002500F00046B6F178
:100EC000004F02D1364EF16901E0354E7168C0F332
:100ED000034583B200F44016B6F5401F08D121F057
:100EE00070612F4E766826F070662D4F7E6012E09E
:100EF00000F48016B6F5801F06D1032606FA05F425
:100F0000A14341F0706106E0460D360103FA06F692
:100F1000B14341F0706122B1460D360103FA06F685
:100F2000314300F00046B6F1004F02D11C4EF16192
:100F300001E01B4E7160F0BD30B500228B071C0F25
:100F40000F2303FA04F2164B08338C1053F82430A5
:100F50009343134C08348D1044F8253023468C10ED
:100F600053F824308C07240F00FA04F423430C4C6C
:100F700008348D1044F8253030BD0A49DC31086052
:100F80007047000000080140000C014000100140C3
:100F90000014014000180140001C014000200140E5
:100FA000000001400000204210B50446FB48844286
:100FB00009D101218803FFF7FFFD00214FF4804094
:100FC000FFF7FAFD32E0F648844209D101214804D6
:100FD000FFF7FFFD00214FF40030FFF7FAFD25E099
:100FE000F048844209D101218804FFF7F2FD002175
:100FF0004FF48020FFF7EDFD18E0EB48844209D163
:101000000121C804FFF7E5FD00214FF40020FFF7A0
:10101000E0FD0BE0E548844208D101210805FFF717
:10102000D8FD00214FF48010FFF7D3FD10BD2DE94E
:10103000F04786B005460E460024A24600BFA146F2
:101040000027B08900B100BF2F462C8A4CF6FF70F4
:101050000440F08804432C82AC894EF6F31004401F
:10106000B08831890843718908430443AC81AC8A54
:101070004FF6FF400440B0890443AC8201A8FFF75B
:1010800014FDC648874202D1DDF810A001E0DDF86A
:101090000CA0A88900F4004040B10AEBCA0000EBA4
:1010A0000A1031684900B0FBF1F807E00AEBCA000A
:1010B00000EB0A1031688900B0FBF1F86420B8FB3E
:1010C000F0F004012009642101FB1089A88900F4D3
:1010D000004040B1322000EBC900B0FBF1F000F05D
:1010E0000700044308E0322000EB09106421B0FB44
:1010F000F1F000F00F0004432C8106B0BDE8F0874A
:101100004FF41651016000218180C18001810C21C2
:10111000418100218181704710B502460020108A6C
:101120004FF2FF0318400B884C8823438C882343DD
:10113000CC8823431843108210BD002101804180D8
:101140008180C180704721B1828942F4005282813E
:1011500004E082894DF6FF731A4082817047F0B532
:101160000346002400260025002040F66A17B942F5
:1011700000D100BF1846C1F3421401F01F06012739
:1011800007FA06F5012C01D10C3004E0022C01D144
:10119000103000E014301AB107682F43076002E0F6
:1011A0000768AF430760F0BD1AB1838A0B4383829F
:1011B00002E0838A8B4383827047028A4FF6F07382
:1011C0001A400282028A0A430282704782894FF2E1
:1011D000FF731A40828182890A438281704721B15C
:1011E000828942F00202828104E082894FF6FD7317
:1011F0001A4082817047028A4FF6DF731A400282DA
:10120000028A0A430282704721B1028A42F4804274
:10121000028204E0028A4BF6FF731A400282704792
:10122000C1F308028280704701468888C0F3080035
:101230007047818941F0010181817047028BD2B2F0
:101240000283028B42EA012202837047028B02F47E
:101250007F420283028B0A430283704721B1828A54
:1012600042F02002828204E0828A4FF6DF731A4045
:101270008282704721B1828A42F01002828204E0A9
:10128000828A4FF6EF731A408282704721B1828AB8
:1012900042F00802828204E0828A4FF6F7731A4015
:1012A0008282704721B1828942F40042828103E048
:1012B0008289C2F30E028281704721B1828A42F490
:1012C0000062828204E0828A4FF2FF731A408282B7
:1012D0007047828A4FF6FB731A408282828A0A43E1
:1012E0008282704721B1828A42F00202828204E047
:1012F000828A4FF6FD731A408282704702460020B0
:10130000B1F5007F00D100BF13880B400BB1012065
:1013100000E00020704701F40072B2F5007F00D1B8
:1013200000BFCA430280704770B502460024002304
:101330000025002040F66A16B14200D100BFC1F37B
:10134000421501F01F03012606FA03F3012D02D115
:101350009689334006E0022D02D1168A334001E01F
:10136000968A33400C12012606FA04F4168834409B
:1013700013B10CB1012000E0002070BD10B50022B7
:10138000002340F66A14A14200D100BF0A120124D2
:101390009440A3B2DC43048010BD0000003801403B
:1013A0000044004000480040004C00400050004015
:1013B00010B50446FA48844208D101214015FFF7D0
:1013C000FBFB00216015FFF7F7FB17E0F5488442AF
:1013D00008D101210015FFF7EFFB00212015FFF7D1
:1013E000EBFB0BE0F048844208D10121C803FFF772
:1013F000E3FB00214FF40040FFF7DEFB10BD30B5EA
:101400000246002000235068E84C20400D790C680B
:1014100044EA0524204350609068E54C2040D1E91F
:1014200002542C434D7944EA450420439060D06A2D
:1014300020F470000C7C641EE4B2234340EA0350A5
:10144000D06230BD00210160017141718160C160D5
:1014500001210174704721B1826842F0010282606B
:1014600003E0826822F001028260704721B1826845
:1014700042F48072826003E0826822F480728260AB
:10148000704710B50023CBB21AB144681C434460C6
:1014900002E044689C43446010BD816841F008014B
:1014A00081607047014600208A6802F008020AB194
:1014B000012000E000207047816841F00401816054
:1014C0007047014600208A6802F004020AB1012038
:1014D00000E00020704721B1826842F4A0028260DF
:1014E00003E0826822F4A002826070470146002077
:1014F0008A6802F480020AB1012000E000207047EF
:1015000010B50A4600210023416821F46041531EB2
:1015100041EA4331416010BD21B1426842F40062AA
:10152000426003E0426822F4006242607047F0B516
:1015300004460D4600200021092D11DDE068A5F1CB
:101540000A0606EB4607072606FA07F18843A5F1C7
:101550000A0606EB460603FA06F10843E0600CE0D3
:10156000206905EB4507072606FA07F1884305EBD6
:10157000450603FA06F108432061072A0FDA606B7B
:10158000561E06EB86071F2606FA07F18843561EED
:1015900006EB860605FA06F10843606322E00D2A91
:1015A0000FDA206BD61F06EB86071F2606FA07F117
:1015B0008843D61F06EB860605FA06F1084320632A
:1015C00010E0E06AA2F10D0606EB86071F2606FA78
:1015D00007F18843A2F10D0606EB860605FA06F12F
:1015E0000843E062F0BD21B1826842F4801282605B
:1015F00003E0826822F48012826070470146C86C62
:1016000080B2704766484C300068704721B142682C
:1016100042F48062426003E0426822F480624260E9
:10162000704721B1426842F48052426003E0426850
:1016300022F48052426070470A460021816821F4FA
:10164000E04111438160704721B1826842F4004259
:10165000826003E0826822F400428260704721B118
:10166000826842F40212826003E0826822F402126D
:1016700082607047014600208A6802F400120AB1B5
:10168000012000E000207047F0B504461546002018
:1016900000220026092911DDE068A1F10A0707EB05
:1016A000470C072707FA0CF29043A1F10A0707EB52
:1016B000470703FA07F21043E0600CE0206901EBF2
:1016C000410C072707FA0CF2904301EB410703FA9C
:1016D00007F210432061A06BC0F30156EF1C06F126
:1016E000010CA7EB0C0707EB870C1F2707FA0CF27E
:1016F0009043EF1C06F1010CA7EB0C0707EB8707E3
:1017000001FA07F21043A063F0BD10B50A460021AC
:101710000023816B21F44011531E41EA0351816380
:1017200010BD08B5002300930090009B0B4400936C
:10173000009B1A6008BD08B5024600200090009288
:1017400001F12800009B184400900098006880B2C6
:1017500008BD0A4600214168164B194011434160FB
:1017600070474162826270470A460021416821F059
:101770001F0111434160704740B1094908310968B0
:1017800041F40001064A0832116007E004490831BB
:10179000096821F40001024A083211607047000014
:1017A0000024014000280140003C0140FFFEF0FF02
:1017B000FDF7F1FFFFFD3FFF0246002013680B40DD
:1017C0000BB1012000E000207047CA43026070475F
:1017D00070B502460020002300240B125568CEB2DB
:1017E00005EA060415681D4015B10CB1012000E0A2
:1017F000002070BD00220A12D3430360704700002E
:1018000001684FF6FE7211400160002101604160E5
:101810008160C1608D49884208D18C490839496886
:1018200041F00F01894A083A51608AE08749143132
:10183000884208D185490839496841F0F001834A56
:10184000083A51607DE081492831884208D17F49BA
:101850000839496841F470617C4A083A516070E087
:101860007A493C31884208D178490839496841F4BD
:101870007041764A083A516063E0744950318842B9
:1018800008D172490839496841F470216F4A083A11
:10189000516056E06D496431884208D16B4908397E
:1018A000496841F47001694A083A516049E0674962
:1018B0007831884208D165490839496841F070613A
:1018C000624A083A51603CE06149884206D1011FF2
:1018D000096841F00F01021F116032E05C491431C8
:1018E000884208D15A49091F096841F0F001584A55
:1018F000121F116025E056492831884208D1544909
:10190000091F096841F47061514A121F116018E003
:101910004F493C31884208D14D49091F096841F4BB
:1019200070414B4A121F11600BE049495031884207
:1019300007D14749091F096841F47021444A121F21
:101940001160704710B50022026847F6F0739A43A1
:101950000C6A8B6823430C6923434C6923438C69CD
:101960002343CC6923434C6A23438C6A23431A43A1
:101970000260CB6843600B6883604B68C36010BD36
:101980000021016041608160C1600161416181614C
:10199000C161016241628162704721B1026842F017
:1019A0000102026004E002684FF6FE731A40026012
:1019B00070471AB103680B43036002E003688B436E
:1019C00003607047416070470146486880B27047C5
:1019D00001460020002201F080531BB11C4B083B44
:1019E0001A6802E0194B083B1A6802EA01030BB1BE
:1019F000012000E00020704700F0805119B1144927
:101A0000091F086002E01149083948607047014623
:101A10000020002201F080531BB10D4B083B1A68D7
:101A200002E00A4B083B1A6802EA01030BB10120ED
:101A300000E00020704700F0805119B10449091FEF
:101A4000086002E001490839486070470800024018
:101A50000804024010B50446FE48844208D1012122
:101A6000C014FFF7A9F80021E014FFF7A5F8C4E0BF
:101A7000B4F1804F08D101210846FFF7AAF80021F0
:101A80000120FFF7A6F8B8E0F348844208D101210D
:101A90000220FFF79EF800210220FFF79AF8ACE041
:101AA000EE48844208D101210420FFF792F800217A
:101AB0000420FFF78EF8A0E0E948844208D1012114
:101AC0000820FFF786F800210820FFF782F894E04D
:101AD000E448844208D101211020FFF77AF8002160
:101AE0001020FFF776F888E0DF48844208D1012112
:101AF0002020FFF76EF800212020FFF76AF87CE035
:101B0000DA48844208D101214014FFF755F800213A
:101B10006014FFF751F870E0D548844209D10121E3
:101B2000C804FFF749F800214FF40020FFF744F8FC
:101B300063E0D048844209D101210805FFF73CF851
:101B400000214FF48010FFF737F856E0CA4884426E
:101B500009D101214805FFF72FF800214FF40010AB
:101B6000FFF72AF849E0C548844208D10121402006
:101B7000FFF72FF800214020FFF72BF83DE0C04889
:101B8000844208D101218020FFF723F80021802022
:101B9000FFF71FF831E0BB48844208D101218015CE
:101BA000FFF717F80021A015FFF713F825E0B64856
:101BB000844209D101210804FEF7FEFF00214FF401
:101BC0008030FEF7F9FF18E0B048844209D10121C6
:101BD0004804FEF7F1FF00214FF40030FEF7ECFF60
:101BE0000BE0AB48844208D101218804FEF7E4FFF2
:101BF00000214FF48020FEF7DFFF10BD0022028895
:101C0000944B98420ED0994B98420BD0B0F1804F34
:101C100008D0914B984205D0904B984202D0904BFF
:101C2000984204D14FF68F731A404B881A438D4B5C
:101C3000984207D08C4B984204D04FF6FF431A408D
:101C4000CB881A4302808B8883850B880385814B60
:101C500098420BD0854B984208D08B4B984205D0C8
:101C60008A4B984202D08A4B984201D10B7A038664
:101C700001238382704770B5002400220023058C65
:101C80004FF6FE7635400584028C8388048B4FF630
:101C90008F752C40B51E2C400D882C43751E2A4094
:101CA0000D892A434D882A436A4DA8420BD06F4DB7
:101CB000A84208D0744DA84205D0744DA84202D065
:101CC000734DA84213D14FF6F7752A404D892A4328
:101CD0004FF6FB752A408D882A434FF6FF652B404F
:101CE0004FF6FF552B408D892B43CD892B438380A5
:101CF0000483CD888586028470BD70B500240022DF
:101D00000023058C4FF6EF7635400584028C8388DE
:101D1000048B48F6FF752C404FF6FF452C400D888C
:101D20004FF6FF7606EA05252C434FF6DF752A406D
:101D30000D8906EA05152A434D8806EA05152A434A
:101D4000444DA84202D0494DA8421DD14FF67F759F
:101D50002A404D894FF6FF7606EA05152A434FF6CD
:101D6000BF752A408D8806EA05152A434FF6FF35D0
:101D70002B404FF2FF752B408D8906EA85052B43DA
:101D8000CD8906EA85052B4383800483CD880587AA
:101D9000028470BD70B5002400220023058C4FF62C
:101DA000FF6635400584028C8388848B4FF68F75DF
:101DB0002C404FF6FC752C400D882C434FF6FF55F8
:101DC0002A400D894FF6FF7606EA05252A434D88FD
:101DD00006EA05252A431F4DA84202D0234DA842FA
:101DE0001DD14FF2FF752A404D894FF6FF7606EA66
:101DF00005252A434FF6FF352A408D8806EA05253A
:101E00002A434EF6FF752B404DF6FF752B408D890A
:101E100006EA05152B43CD8906EA05152B43838079
:101E20008483CD888587028470BD70B5002200232D
:101E30000024058C4EF6FF7635400584038C84889B
:101E4000828B48F6FF752A404FF6FF452A400D88E1
:101E500020E00000002C0140000400400008004089
:101E6000000C00400010004000140040003401400D
:101E7000004C014000500140005401400018004057
:101E8000001C004000200040004001400044014090
:101E9000004801404FF6FF7606EA05252A434DF635
:101EA000FF752B400D8906EA05352B434D8806EA60
:101EB00005352B43FA4DA84202D0FA4DA84208D16D
:101EC0004BF6FF752C408D894FF6FF7606EA851597
:101ED0002C4384808283CD88A0F84050038470BD59
:101EE000828B4FF2FF331A408283828B4FF6FF734F
:101EF00003EA01231A4382837047F0B50C46154666
:101F0000002200210026078C4EF6FF7C07EA0C0712
:101F10000784828B018C4FF6FF7707EA043640F680
:101F2000FF473A404FF6FF7707EA05273A434FF657
:101F3000FF7707EA03373A43D94FB8420ED0D94F5B
:101F4000B8420BD0B0F1804F08D0D74FB84205D07F
:101F5000D64FB84202D0D64FB84206D14DF6FF77E1
:101F6000394046F48057394305E047F6FF5739407A
:101F700044F48057394382830184F0BD828B4FF64D
:101F8000F3731A408283828B0A4382837047F0B5D1
:101F90000C461546002200210026078C4FF6FF6CE8
:101FA00007EA0C070784828B018C4FF6FF7707EA5C
:101FB00004264FF60C773A404FF6FF7707EA0317EF
:101FC0002F433A43B64FB8420ED0B64FB8420BD06B
:101FD000B0F1804F08D0B44FB84205D0B34FB842EB
:101FE00002D0B34FB84206D14FF6FF57394046F4FE
:101FF0008077394305E04FF2FF57394044F480774A
:10200000394382830184F0BD028B4FF2FF331A40C3
:102010000283028B4FF6FF7303EA01231A43028304
:102020007047F0B50C461546002200210026078CAB
:102030004FF6EF7C07EA0C070784028B018C4FF602
:10204000FF7707EA041640F6FF473A404FF6FF775E
:1020500007EA03373A434FF6FF7707EA05273A4383
:102060008F4FB8420ED08F4FB8420BD0B0F1804F97
:1020700008D08D4FB84205D08C4FB84202D08C4F5B
:10208000B84206D14FF6DF77394046F010073943A2
:1020900005E04FF65F77394044F01007394302837B
:1020A0000184F0BD028B4FF6F3731A400283028B5A
:1020B0000A4302837047F0B50C4615460022002102
:1020C000068C4FF6FE773E400684028B018C4FF65D
:1020D0000C7632407E1C06EA03162E433243704EC5
:1020E000B0420ED06F4EB0420BD0B0F1804F08D04E
:1020F0006D4EB04205D06D4EB04202D06C4EB04233
:1021000006D14FF6FD76314044F00106314305E03B
:102110004FF6F576314044F00106314302830184E5
:10212000F0BD70B505460C465D4885420ED05D4851
:1021300085420BD0B5F1804F08D05B48854205D071
:102140005A48854202D05A48854200D100E000BF7B
:10215000208850B92389A28861882846FFF7ABFF01
:10216000E1882846FFF79EFF25E0208804280AD151
:102170002389A28861882846FFF753FFE188284613
:10218000FFF742FF17E0208808280AD12389A28898
:1021900061882846FFF7FBFEE1882846FFF7EEFE40
:1021A00009E02389A28861882846FFF7A6FEE18816
:1021B0002846FFF795FE70BD2DE9F04105460C4617
:1021C00000260127608808B9022600E00026A088C2
:1021D000012801D1022700E001272088A0B9238926
:1021E000A28861882846FFF766FFE1882846FFF746
:1021F00059FF23893A4631462846FFF712FFE18806
:102200002846FFF701FF13E02389A288618828464A
:10221000FFF707FFE1882846FFF7F6FE23893A46D5
:1022200031462846FFF747FFE1882846FFF73AFF87
:10223000BDE8F0810A884B881A438B881A43CB8803
:102240001A430B891A434B891A438B891A43A0F806
:10225000442070474FF6FF71818000210180C180CA
:102260004180017270470021018041808180C180DE
:10227000018141818181C1817047002101804180BC
:10228000012181800021C1800181704700210180EE
:1022900041808180C180018141818181704700003E
:1022A000002C0140003401400004004000080040C0
:1022B000000C004021B1028842F00102028004E0DB
:1022C00002884FF6FE731A400280704731B1B0F8B1
:1022D000442042F40042A0F8442005E0B0F8442035
:1022E000C2F30E02A0F8442070471AB183890B4351
:1022F000838102E083898B438381704781827047A9
:1023000041EA0203A0F8483070471AB183890B43B1
:10231000838102E083898B438381704701894FF673
:10232000F8721140018170470A46002101894FF679
:102330008F73194011430181704730B504460D4633
:1023400029462046FFF7F0FF208940F00700208152
:1023500030BD2DE9F04104460D4616461F46602D5E
:1023600006D13B46012231462046FFF75AFE05E0E2
:102370003B46012231462046FFF79DFE2946204676
:10238000FFF7D2FF208940F007002081BDE8F081EF
:1023900030B50C4600210189C9B24FF6FF7505EA38
:1023A0000325154325432943018130BD2DE9F04123
:1023B00005460E4617469846002443463A4631469F
:1023C0002846FFF7E5FF2C894FF6F870044044F0EB
:1023D00007044FF68F70044044F070042C81BDE870
:1023E000F081F0B504460D4616461F463B46324680
:1023F00029462046FFF7CCFF208940F48040208109
:10240000F0BD0185828270470A46002101884FF69F
:102410008F731940114301807047F0B50C46154683
:102420001E460021002200230189028B038C4FF6F7
:10243000F877394021434FF6FC473A4040F2011704
:102440003A434FF6DD773B404FF6FF7707EA061732
:102450002F433B43018102830384F0BD0A460021E0
:10246000018B4FF68F7319401143018370470A4661
:102470000021018B48F6FF7319404FF6FF7303EA02
:1024800002231943018370470A460021818B4FF6CE
:102490008F7319401143818370470A460021818B55
:1024A00048F6FF7319404FF6FF7303EA02231943FE
:1024B0008183704721B1028842F08002028004E0EB
:1024C00002884FF67F731A400280704721B18288DC
:1024D00042F00402828004E082884FF6FB731A40C7
:1024E0008280704721B1828842F00802828004E035
:1024F00082884FF6F7731A408280704721B1828834
:1025000042F00102828004E082884FF6FE731A4096
:10251000828070470A460021018B4FF6F7731940FD
:102520001143018370470A460021018B4FF2FF736C
:1025300019404FF6FF7303EA0223194301837047E2
:102540000A460021818B4FF6F773194011438183AE
:1025500070470A460021818B4FF2FF7319404FF6F6
:10256000FF7303EA02231943818370470A4600215F
:10257000018B4FF6FB7319401143018370470A46E4
:102580000021018B4FF6FF3319404FF6FF7303EA2A
:1025900002231943018370470A460021818B4FF6BD
:1025A000FB7319401143818370470A460021818BD8
:1025B0004FF6FF3319404FF6FF7303EA0223194326
:1025C000818370470A460021018B4FF67F731940C3
:1025D0001143018370470A460021018BC1F30E01AC
:1025E0004FF6FF7303EA02231943018370470A463B
:1025F0000021818B4FF67F7319401143818370470F
:102600000A460021818BC1F30E014FF6FF7303EAE6
:1026100002231943818370470A460021018C4FF63B
:10262000FD7319401143018470470A460021018C53
:102630004FF6F77319401143018470470A46002191
:10264000018C4FF6DF7319404FF6FF7303EA021354
:102650001943018470470A460021018C4FF67F73AD
:1026600019404FF6FF7303EA0213194301847047C0
:102670000A460021018C4FF6FF5319404FF6FF73B5
:1026800003EA02231943018470470A460021018CA2
:102690004FF2FF7319404FF6FF7303EA0223194309
:1026A000018470470A460021018C4DF6FF731940E2
:1026B0004FF6FF7303EA023319430184704730B5C4
:1026C000002301248C40A3B2048C9C430484048C1A
:1026D00002FA01F5ADB22C43048430BD30B50023BD
:1026E00004248C40A3B2048C9C430484048C02FA1E
:1026F00001F5ADB22C43048430BD70B50346002013
:1027000000241846183001258D40ACB21D8CA5431D
:102710001D8409B1082909D100EB6100056825F085
:10272000700505600568154305600EE00D1FC5F3D3
:102730004E052844056825F4E045056005684FF618
:10274000FF7606EA02263543056070BD21B1028896
:1027500042F00202028004E002884FF6FD731A4044
:102760000280704721B1028842F00402028004E036
:1027700002884FF6FB731A400280704721B18288AD
:1027800042F08002828004E082884FF67F731A4014
:102790008280704702884FF6F7731A4002800288E1
:1027A0000A430280704782884FF68F731A408280F6
:1027B00082880A438280704702894FF6F8731A4074
:1027C000028102890A430281704702894FF67F73B2
:1027D0001A40028102890A4302817047818470474E
:1027E0008185704781867047018770478187704770
:1027F000A0F84010704702884FF6FF431A4002804D
:1028000002880A43028070470146888E704701465D
:10281000088F70470146888F70470146B1F8400025
:1028200070470146888C70470146088D7047024604
:102830000020138A0B400BB1012000E000207047FC
:10284000CA430282704730B50246002000230024AC
:10285000158A05EA0103958905EA010413B10CB153
:10286000012000E0002030BDCA4302827047000012
:1028700031490143314A1160704770B5002100238E
:102880000F22C47804B32D4C246804F4E064C4F52A
:10289000E064210AC1F10403CA40447804FA03F158
:1028A0008478144021430901254C0678A155047809
:1028B00004F01F050124AC4005786D11AD0005F151
:1028C000E025C5F8004109E0047804F01F05012463
:1028D000AC401C4D0678761145F8264070BD1A4A6A
:1028E0000A400243154B1B1F1A60704739B1134A47
:1028F000121D12680243114B1B1D1A6006E00F4A9D
:10290000121D126882430D4B1B1D1A60704704286C
:1029100008D14FF0E021096941F004014FF0E022B5
:10292000116107E04FF0E021096921F004014FF047
:10293000E0221161704700000000FA050CED00E094
:1029400000E400E080E100E080FFFF1F0CB5002004
:10295000019000906C48006840F480306A4908603B
:1029600000BF6948006800F4003000900198401CE6
:102970000190009818B90198B0F5A06FF1D16248A4
:10298000006800F4003010B10120009001E0002048
:1029900000900098012843D15C48006840F0100086
:1029A0005A4908600846006820F00300086008469D
:1029B000006840F00200086053484068524948608F
:1029C0000846406848600846406840F480604860B7
:1029D0000846406820F47C1048600846406840F48F
:1029E000E81048600846006840F08070086000BF4A
:1029F0004548006800F000700028F9D0424840685F
:102A000020F00300404948600846406840F002005A
:102A1000486000BF3C48406800F00C000828F9D12D
:102A20000CBD10B5FFF792FF10BD10B53648006819
:102A300040F00100344908600846406834490840C5
:102A40003149486008460068324908402E4908600C
:102A50000846006820F4802008600846406820F49A
:102A6000FE0048604FF41F008860FFF7DAFF4FF068
:102A700000602949086010BD10B500210020002227
:102A8000214B5B6803F00C0121B1042906D0082911
:102A900028D107E0214B224C236027E01F4B204C1C
:102AA000236023E0184B5B6803F47010164B5B68DF
:102AB00003F48032022303EB904022B9194B4343C5
:102AC000174C23600DE0104B5B6803F4003323B117
:102AD000144B4343124C236003E0104B4343104C10
:102AE000236003E00D4B0E4C236000BF00BF064B7C
:102AF0005B68C3F303130C4CE15C094B1B68CB40D0
:102B0000074C236010BD000000100240002002406E
:102B10000000FFF8FFFFF6FE08ED00E000127A006B
:102B20002400002000093D002800002030B480EA85
:102B3000010202F0004530F0004221F0004013D0C5
:102B400090B1C30DD40DC2F31601C0F31600E41A00
:102B500041F4000140F400027D34914201D3641C31
:102B600000E04900002C02DA30BC002070474FF42E
:102B700000000023914201D3891A034340084FEA21
:102B80004101F7D151B1914202D14FF0004105E02E
:102B900002D24FF0010101E06FF0010103EBC450DC
:102BA000284430BC00F068BA2DE9FE4F804681EA27
:102BB0000300C00F0C46009021F0004123F00045B7
:102BC000B8EB0200A94105D24046214690461C467A
:102BD0000B46024623F00040104347D0270DC7F3B1
:102BE0000A00C3F30A510290401A019040286BDAA0
:102BF000C3F3130040F4801B0098924620B10023D9
:102C0000D2EB030A63EB0B0B01985946C0F140026B
:102C1000504600F000FA06460D4650465946019AC5
:102C200000F018FA10EB08006141002487EA115205
:102C300084EAE7731A4340D0009A62B3019A012AEA
:102C40004FEA075215DC001B61EB02014FF0004216
:102C500002EA0752CDE90042001C41F580113246DC
:102C60002B4600F04DFA03B0BDE8F08F40462146F8
:102C7000F9E7001B61EB0201001C41F5801300180D
:102C80005B412018A2F5001747EB030140EAD5701D
:102C9000B6196D4111E06D084FEA360645EAC07578
:102CA0004FEA0752001B61EB0201001C41F5801145
:102CB00049084FEA30000019514132462B4603B013
:102CC000BDE8F04F00F00FBA009801224000002349
:102CD000D0EB020263EBE073009821464FEAE07408
:102CE000B8EB000061EB0401E9E783F000435BE728
:102CF00081F0004158E72DE9FE4F81EA030404F01A
:102D0000004421F0004100944FF0000B23F00043F9
:102D100050EA01045ED052EA03045BD0C3F30A54C4
:102D2000C1F30A552C44A4F2F3340194A0FB0254DD
:102D3000C1F3130141F48011C3F3130343F480136F
:102D400001FB024400FB034E840A970A44EA8154C3
:102D500047EA8357A4FB076802958D0A05FB0785A0
:102D60004FEA932C04FB0C542705029D4FEA0658AA
:102D700047EA1637B5EB08056EEB070C870E920E87
:102D800047EA811742EA8312A7FB0201B6EB0B0167
:102D900064EB00042B0D43EA0C335E1844EB1C502B
:102DA000DA465146E7FB0201C5F313044FEA0B3341
:102DB00043EA14534FEA0432019C43EA0603A4F1A8
:102DC0000C040294009CCDE900B400F099F903B022
:102DD000BDE8F08F00200146F9E72DE9F04D81EACA
:102DE000030404F0004B21F0004514464FF0000AA4
:102DF00023F0004150EA050220D054EA01021DD020
:102E0000C5F30A570246C5F31303C1F31300C1F318
:102E10000A5640F4801543F48013A7EB0608101BF4
:102E2000D64608F2FD3873EB050002D308F101081D
:102E300001E092185B41B8F1000F03DA002001466F
:102E4000BDE8F08D00204FF48011064684460EE068
:102E5000171B73EB050705D3121B63EB0503064332
:102E60004CEA010C49084FEA300092185B4150EAE5
:102E70000107EDD152EA030012D082EA040083EA8E
:102E80000501084305D0101BAB4106D201220023E7
:102E900006E000224FF0004302E06FF00102531001
:102EA0001AEB06004CEB085110EB0A0041EB0B014A
:102EB000BDE8F04D00F017B9C10F80EAE07008449A
:102EC000CA079623002100F0E0B80EB5C10F80EAD2
:102ED000E0700844CA07002140F233438DE80E0039
:102EE0000A460B4600F00CF903B000BD70B5C1F303
:102EF0000A5201F000450024C1F3130140F2FF33F0
:102F000041F480119A4201DA002070BD40F233434F
:102F10009A42A2F2334203DC524200F08BF800E006
:102F200090402C43F1D0404270BD00F0004230F0A0
:102F300000400AD0C10D01F56071C0F3160042EAED
:102F40000151C208400711437047002001467047F5
:102F500001F0004330B421F0004150EA010206D0F4
:102F60000A0DA2F56072C1F31301002A02DC30BC25
:102F700000207047440F44EAC104C100E01830BC8F
:102F800000EBC25000F078B830B50B460146002087
:102F90002022012409E021FA02F59D4205D303FA1B
:102FA00002F5491B04FA02F52844151EA2F101029C
:102FB000F1DC30BD2DE9F05F0546002092469B46CE
:102FC00088460646814640241BE02846414647463F
:102FD000224600F02FF853465A46C01A914110D3AA
:102FE00011461846224600F016F82D1A67EB010824
:102FF0004F4622460120002100F00DF817EB000992
:103000004E41201EA4F10104DFDC484631462A4629
:103010004346BDE8F09F202A04DB203A00FA02F183
:10302000002070479140C2F1200320FA03F31943B6
:1030300090407047202A04DB203A21FA02F0002158
:10304000704721FA02F3D040C2F1200291400843B8
:1030500019467047202A06DBCB17203A41FA02F0C6
:1030600043EAE07306E041FA02F3D040C2F12002E5
:1030700091400843194670470029A8BF7047401C7B
:10308000490008BF20F00100704710B4B0FA80FC7E
:1030900000FA0CF050EA010404BF10BC704749B1BB
:1030A000CCF1200421FA04F411FA0CF118BF01212B
:1030B00021430843A3EB0C01CB1D4FEA00614FEA0B
:1030C000102042BF002010BC704700EBC3501044DA
:1030D0000029A4BF10BC7047401C490008BF20F065
:1030E000010010BC704710B5002B08DA401C41F1FC
:1030F000000192185B411A4301D120F0010010BD7C
:103100002DE9F04D92469B4611B1B1FA81F202E0F1
:10311000B0FA80F220329046FFF77DFF04460F465A
:1031200040EA0A0041EA0B0153465A46084313D0CD
:10313000114653EA010019D0C8F140025046FFF78A
:1031400079FF05460E46504659464246FFF763FF53
:10315000084305D0012004E020463946BDE8F08D43
:103160000020054346EAE0762C4337430A9863057E
:10317000E40AA0EB08000022FD0A44EA47540A30A2
:1031800002D500200146E9E7010510196941DDE992
:10319000084500196941BDE8F04DA4E770B521F07C
:1031A000004303430CD0C1F30A550024D5EB0405BA
:1031B00064EB0403D617AD1AB34102DB00200146CD
:1031C00070BD201841EB025170BD2DE9F04D002378
:1031D0001A461B1A8A4103DB00200146BDE8F08D28
:1031E000C1F30A52C1F3130141F480154FF0000BF3
:1031F000D10702D100186D41521E0027044640F24B
:10320000FF11384601EB620A3E4680460246002026
:103210004FF48011FFF70EFFC2197141BB1846EB46
:103220000100B4EB030C75EB000C04D3E41A65EB5E
:10323000000517460E46241908F101006D4180462D
:103240003428E3DDF91946EB0600091BA84103D237
:103250004FF0FF32134601E0002213461BEB07003C
:1032600046EB0A51BDE8F04DFFF73DBFC1F30A52EE
:10327000C1F3130140F2FF3341F480119A4202DAA4
:1032800000200146704740F233439A42A2F2334293
:1032900002DC5242FFF7CEBEFFF7BDBE30B50029BB
:1032A00004DB4FF00044404264EB0101002B04DBDF
:1032B0004FF00044524264EB0303994208BF90422E
:1032C00030BD0000064C074D06E0E06840F0010309
:1032D00094E8070098471034AC42F6D3FCF72CFF73
:1032E000B83F0008D83F00080FB4054B10B503A93C
:1032F000044A029800F042F910BC5DF814FB00008B
:10330000C302000838000020490050EAC12018BF5D
:1033100004204A0D18BF40F0010040F2FF72B2EBEA
:10332000515F08BF40F00200012808BF0520704728
:103330002DE9F0414F1E00EBC7010446D1E9000121
:1033400015461E4637F006020DD02A463346FFF7D3
:10335000D2FC7F1E04EBC703D3E90023FFF724FC54
:1033600037F00602F1D1022F25D0042F13D0062FFB
:1033700018BFBDE8F0812A463346FFF7BCFCD4E90C
:103380000A23FFF711FC2A463346FFF7B4FCD4E9C1
:103390000823FFF709FC2A463346FFF7ACFCD4E9C3
:1033A0000623FFF701FC2A463346FFF7A4FCD4E9C5
:1033B0000423FFF7F9FB2A463346FFF79CFCD4E9C8
:1033C0000223FFF7F1FB2A463346FFF794FCD4E9CA
:1033D0000023BDE8F041FFF7E7BB0000024A0020F0
:1033E0001107FFF7DBBE000001FDFFFF02E008C888
:1033F000121F08C1002AFAD170477047002001E06F
:1034000001C1121F002AFBD170470000014908606A
:10341000704700003C0000202DE9FF5FDDE902203D
:10342000010DDDF838B0024318D044F61050A1F277
:10343000FF3141430D140F98012820D0A5EB0B005C
:10344000401C5FEA000A4FF00004474EDFF81C9171
:10345000A046504616D5CAF1000728E00F9801246F
:1034600043A2012808D0002100980F9BC0E9002149
:10347000C0E90243BDE8FF9F6FEA0B01F4E7CBF11F
:103480000000DEE7074612E0F80707D02246334681
:1034900040464946FFF72FFC804689462246334680
:1034A00010461946FFF727FC04460E467F10002FF2
:1034B000EAD1DDE90201BAF1000F42464B4602DAD9
:1034C000FFF719FC01E0FFF788FC04460E460022D6
:1034D000284BFFF7E3FE03D84FF0FF30014607E02B
:1034E0000022254B20463146FFF75EFBFFF7BEFE6C
:1034F000102409E0002C0ADB0A220023FFF75AFD02
:10350000019B30321A55641E50EA0102F2D1641C4C
:10351000019AC4F1110314440F9A012A03D0012225
:1035200008430DD10AE0084304D000204FF0110BEE
:103530000F9080E7A3EB0B056D1E0DE05B4504DDEE
:103540004FF0000205F1010504E003DA4FF000023C
:10355000A5F10105002AECD000980F99C0E90231CD
:10356000C0E9004586E70000000024400000F03F6D
:10357000300000000000F0430000E03F2DE9FF4F65
:1035800095B09B468946064600250FE2252877D14F
:1035900000242746F84A0121059400E0044316F868
:1035A000013F203B01FA03F01042F7D130782A287E
:1035B00011D06FF02F033078A0F13002092A16D80D
:1035C000059A44F0020402EB820203EB420210442B
:1035D000761C0590EFE759F8042B0592002A03DAD0
:1035E000504244F40054059044F00204761C3078B4
:1035F0002E2816D116F8010F44F004042A280DD005
:103600006FF02F023078A0F13003092B09D807EBB7
:10361000870302EB4303C718761CF3E759F8047BD2
:10362000761C30786C280FD006DC4C2817D0682820
:103630000DD06A2814D104E0742810D07A280FD154
:103640000DE044F400140AE044F4801401E044F472
:1036500040147278824202D104F58014761C761CE4
:10366000307866280BD013DC582877D009DC002886
:1036700075D04528F6D04628F4D047281AD19DE1C8
:1036800018E0632835D0642879D0652812D195E1F7
:10369000702873D008DC6728F1D069286FD06E28B5
:1036A0000DD06F2806D1B5E073282CD0752875D0C1
:1036B000782874D05A46179990476D1C75E1C4F369
:1036C0000250022809D003280DD0D9F80010042890
:1036D0000DD00D6009F1040967E1D9F80010EA176F
:1036E000C1E90052F6E7D9F800100D80F2E70D703D
:1036F000F0E719F8041B8DF8001000208DF8010088
:10370000EA46012003E059F804AB4FF0FF306107AF
:103710004FF0000102D40DE008F101018846B942E2
:103720000FDA8045F8DB1AF808100029F4D108E018
:1037300008F1010188468142FADB1AF808100029D5
:10374000F6D105985B46A0EB080721463846179A44
:1037500000F094FA284400EB080507E04DE029E169
:103760000DE01AF8010B5A4617999047B8F1010875
:10377000F7D25B4621463846179A13E142E00A2207
:103780000092C4F302524FF0000A022A08D059F8FE
:1037900004CB032A4FEAEC710AD00DE029E02AE0BD
:1037A00009F1070121F00702F2E802C1914609E0A0
:1037B0000FFA8CFC4FEAEC71042A03D14FFA8CFC0F
:1037C0004FEAEC71002907DA0A460021DCF1000C0F
:1037D00061EB02012D2202E0220504D52B228DF897
:1037E0000420012203E0E20701D02022F7E79046FF
:1037F00059E00A2102E010220DE010214FF0000AEA
:1038000000910BE010224FF0000A44F00404082756
:10381000009203E008224FF0000A0092C4F3025223
:10382000022A05D059F804CB0021032A08D009E068
:1038300009F1070121F00702F2E802C1914605E013
:103840001FFA8CFC042A01D10CF0FF0C4FF0000889
:10385000220728D5702806D0009B83F0100353EA76
:103860000A0305D00EE040228DF80420012208E072
:103870005CEA010206D030228DF804208DF80500A4
:1038800002229046009B83F0080353EA0A030AD100
:103890005CEA010201D1620705D530228DF80420CF
:1038A0004FF001087F1E582804D034A003900EA8C2
:1038B00002900DE036A0F9E753466046009AFFF704
:1038C00079FB84460398825C0298401E0290027045
:1038D0005CEA0100F0D1029806A9081A00F1200A5A
:1038E000600702D524F4803400E00127574502DD4B
:1038F000A7EB0A0000E0002000EB0A010090059809
:103900004144401A0590E00306D45B462146179ACD
:10391000059800F0B3F90544002706E001A85A46CF
:10392000C05D179990476D1C7F1C4745F6DBE0038F
:103930000CD55B462146179A059800F09FF905447F
:1039400004E030205A46179990476D1C0099481E94
:1039500000900029F5DC08E0029802995A460078A8
:10396000491C0291179990476D1CBAF10001AAF108
:10397000010AF1DC65E10000092801003031323331
:10398000343536373839616263646566000000009B
:103990003031323334353637383941424344454685
:1039A0000000000000F058F90544761C307800282B
:1039B0007FF4ECAD19B02846BDE8F08F620700D463
:1039C000062709F1070222F0070CFCE80223E14672
:1039D00003F000485FEA080C02D00FF2702C0DE0F3
:1039E0005FEA045C02D50FF2682C07E05FEAC47C52
:1039F00002D00FF2602C01E0AFF2700C4FF0FF38F4
:103A000023F00043CDF850C065280CD006DC4528D3
:103A100009D046281DD047283DD13DE0662818D062
:103A200067287ED138E00021112F01DB112000E052
:103A3000781CCDE9000106A90EA8FFF7EDFCDDE931
:103A40000F010E9A03910021009207F1010A0491DF
:103A50004DE04FF000400097CDE9011006A90EA8F7
:103A6000FFF7DAFCDDE90F0203920E9B11990022A9
:103A7000DDF80CA00093049211B9791C00EB010A47
:103A8000B7EB0A0004D4C0F1FF3007F1010A04903B
:103A9000AAEB0700019044E0012F00DA0127002182
:103AA000112F01DD112000E03846CDE9000106A903
:103AB0000EA8FFF7B1FCDDE90F010E9A039100217A
:103AC00004910092BA4621070CD40399514500DABB
:103AD0008A46BAF1010F05DD009AAAF10101515C95
:103AE000302908D0B84202DA10F1040F06DA0121B9
:103AF000CDE9011015E0AAF10101E9E7002805DC94
:103B0000049901440491AAEB000102E0411C5145D3
:103B100000DD8A460499401A401C01904FF0004095
:103B20000290200704D40198504501DBCDF80480B1
:103B300000208DF84F0002980DF14F07B0F1004FB3
:103B400025D02B200E9002984FF0020800280CDAA6
:103B5000404202902D200E9007E00A210298FFF7C4
:103B600013FA3031029007F8011DB8F10001A8F1F5
:103B70000108F2DC02980028EFD1791E0E98087037
:103B8000307800F0200040F0450007F8020D12A840
:103B9000C01B00F107081498007800B1012000EB69
:103BA0000A01019801EBE07105984144401A401E5A
:103BB0000590E00306D45B462146179A059800F06D
:103BC0005DF805441498007818B15A461799904743
:103BD0006D1CE00324D55B462146179A059800F03A
:103BE0004DF805441CE00498002807DBDDE90301DB
:103BF000884203DD0098405C179901E01799302056
:103C00005A469047049805F10105401C049001981C
:103C1000401E019004D12E205A46179990476D1CE2
:103C2000BAF10001AAF1010ADDDC05E017F8010B89
:103C30005A46179990476D1CB8F10001A8F1010888
:103C4000F4DC5B462146179A0598ABE62D00000090
:103C50002B000000200000002DE9F0410446002563
:103C60001E461746880404D405E039462020B04794
:103C70006D1C641EF9D52846BDE8F0812DE9F041A0
:103C8000044600251E469046C80301D5302700E0B3
:103C90002027880404D505E041463846B0476D1C0E
:103CA000641EF9D52846BDE8F08100002DE9F84FE3
:103CB00004460D4621F0004000917449814213DC16
:103CC0007349884201DC08D13CB120462946BDE851
:103CD000F84F4FF00102FFF761BA6E48002DCCBFDC
:103CE0006D496E49BDE8F88F6D49814211DD6D491E
:103CF0008142D8BF4FF0FF366DDD20462946FFF7E1
:103D000003FB042808BFFFF769FB20462946BDE8EE
:103D1000F88F6549654F25F00045814233DD6449E0
:103D2000814219DD002632464FF080432046294665
:103D3000FEF73AFF80468A46012220462946FFF7D1
:103D40002DFA00223B46FEF7D0FF42465346FFF7CE
:103D500044F804460D463EE001260022BA463B46A2
:103D600020462946FEF720FF80460F460022534694
:103D700020462946FEF7B9FF42463B46FFF72DF89D
:103D800004460D4627E04B4981421BDDDFF82881C0
:103D900002260022434620462946FEF7ACFF0022B9
:103DA0003B46FEF701FF07468A460022434620466F
:103DB0002946FEF79AFF3A465346FFF70EF80446A7
:103DC0000D4608E0032622462B4600203B49FFF71C
:103DD00004F804460D4622462B4610461946FEF7C7
:103DE0008AFF8B46824602460B46FEF784FF074653
:103DF0000246334888460B4606217844FFF798FA76
:103E000052465B46FEF777FF82462E488B463A467F
:103E1000434605217844FFF78BFA3A464346FEF7BE
:103E20006AFF02460B46002E504659460CDAFEF752
:103E3000BBFE22462B46FEF75EFF01B022462B4614
:103E4000BDE8F04FFEF754BFFEF7AEFE22462B460C
:103E5000FEF751FF1C4A7A4402EBC603D3E9002364
:103E6000FEF743FF22462B46FEF73FFF174A7A44F0
:103E700002EBC603D3E90023FEF73AFF009A002ABB
:103E8000B8BF81F00041BDE8F88F00000000104489
:103E90000000F07F182D4454FB21F93FFB21F9BFAE
:103EA0000000DC3F0000203E0000F33F0000F03F38
:103EB0000000E63F008003400000F83F0000F0BF34
:103EC0008A01000048010000E6000000AE0000008A
:103ED0002DE9F04106460F46FFF777F904000D463D
:103EE00018BF0120284320F00040C0F17F6000F19E
:103EF000E040C00F0ED0301C18BF0120384320F026
:103F00000040C0F17F6000F1E040C00F04BF01201D
:103F1000FFF77CFA20462946BDE8F081000000004A
:103F20004FBB610567ACDD3F182D4454FB21E93FD1
:103F30009BF681D20B73EF3F182D4454FB21F93FC0
:103F4000E2652F227F2B7A3C075C143326A6813C46
:103F5000BDCBF07A8807703C075C143326A6913CF1
:103F6000C4EB98999999C9BF711623FEC671BCBF5D
:103F70006D9A74AFF2B0B3BF9AFDDE522DDEADBFC5
:103F80002F6C6A2C44B4A2BF0D5555555555D53FDD
:103F9000FF8300922449C23F6E204CC5CD45B73FF8
:103FA000513DD0A0660DB13FEB0D76244B7BA93F70
:103FB00011DA22E33AAD903FD83F0008000000201C
:103FC00040000000EC3300081840000840000020CA
:103FD00080040000FC330008000000000000000026
:103FE00000000000000000000000010203040102C4
:103FF00003040607080902040608000000A24A0498
:104000000000000000000000010203040607080988
:084010000000000000000000A8
:0400000508000131BD
:00000001FF
