:020000040800F2
:100000003005002045010008010300080303000833
:10001000070300080B0300080F030008000000009E
:1000200000000000000000000000000013030008B2
:10003000150300080000000017030008190300085A
:100040005F0100085F0100085F0100085F01000810
:100050005F0100085F0100085F0100085F01000800
:100060005F0100085F0100085F010008C106000889
:100070005F0100085F0100085F0100085F010008E0
:100080005F0100085F0100085F0100085F010008D0
:100090005F0100085F0100085F0100085F010008C0
:1000A0005F010008DF0600085F0100085F0100082B
:1000B0005F0100085F0100085F0100085F010008A0
:1000C0005F0100085F0100085F0100085F01000890
:1000D0005F0100085F0100085F0100085F01000880
:1000E0005F0100085F0100085F0100085F01000870
:1000F0005F0100085F0100085F0100085F01000860
:100100005F0100085F0100085F0100085F0100084F
:100110005F0100085F0100085F0100085F0100083F
:100120005F0100085F0100085F0100085F0100082F
:10013000DFF80CD003F08AFB004800476901000893
:10014000300500200648804706480047FEE7FEE7E6
:10015000FEE7FEE7FEE7FEE7FEE7FEE7FEE7FEE777
:100160000B3200083101000888B04FF47A60079024
:100170008346642006905846059000200490039022
:10018000029000F066FA00F0F5FB464800F022FC11
:100190000121454801F009FC00BF444800780028CF
:1001A000FBD043480468D0F80490D0F808A0079921
:1001B000081B03F054FA054629463E4803F030F97F
:1001C0003D490860ABEB090003F052FA00223B4BBB
:1001D000CDE9000103F062F907463A460B460020DC
:1001E000374903F0CDF9054603F06CFA354908604C
:1001F000DDE90512881A03F03BFA334A334BCDE9A7
:10020000000103F04BF905462A460B4600202C4915
:1002100003F0B6F9074603F055FA2D49086000F0DF
:10022000E2FB00F07BF800F01CFD2A49087008464C
:100230000078012803D128A003F03AFB02E02AA0AD
:1002400003F036FB00F060FA00F0DBFC29E02A48FE
:10025000007800B925E0002027490870134800788D
:10026000F0B100201149087001210F4801F09DFBF9
:100270000F480068001B04900D484068A0EB09007F
:1002800003900B488068A0EB0A000290DDE9022190
:10029000049800F0C5FA194800F005FD0D490870F2
:1002A00000BFD4E7FFFF0F00002401400D00002035
:1002B0000801002000007A440000002000000240F5
:1002C00000409F40040000209A9999999999F13F24
:1002D000080000200C0000200D0A20737563636580
:1002E00073736564200D0A000D0A206661696C65F0
:1002F00064200D0A000000000E0000201401002000
:10030000704700BFFEE700BFFEE700BFFEE700BF8B
:10031000FEE77047704770477047000000B585B032
:10032000012144F2040000F097FE4FF40070ADF894
:10033000100018208DF8130003208DF8120004A976
:10034000754800F04DFF4FF48060ADF810000420B8
:100350008DF8130004A9704800F042FF4FF4E1301B
:1003600000900020ADF80400ADF80600ADF80800DC
:10037000ADF80C000C20ADF80A006946674801F0A2
:10038000C0F80121654801F048F905B000BD70B51D
:1003900004460D46E1B2614801F0ACF900BF5F4888
:1003A000008800F080000028F9D0204670BDF0B52C
:1003B00003460D461646002729460A2E03D0002084
:1003C00008702846F0BD33B9302001F8010B002039
:1003D00008702846F6E7002B03DA2D2001F8010B00
:1003E0005B4242F210720DE093FBF2F404B937B1B4
:1003F00004F1300001F8010B04FB123301270A203D
:1004000092FBF0F2002AEFDC002008702846D9E7C2
:100410000FB470B586B006460CA8019073E00B9837
:1004200000785C281CD10B98401C0B9000786E283B
:1004300009D072280FD10D21304601F05BF90B98DD
:10044000401C0B900BE00A21304601F053F90B9849
:10045000401C0B9003E00B98401C0B9000BF4BE03E
:100460000B980078252840D10B98401C0B90007801
:10047000642818D0732833D1019810C801900BE07C
:100480002178304601F036F900BF4021304601F0B6
:100490009FF90028F9D0641C20780028F0D10B982F
:1004A000401C0B9020E0019820C801900A2202A96C
:1004B0002846FFF77CFF02AC0BE02178304601F0C4
:1004C00019F900BF4021304601F082F90028F9D027
:1004D000641C20780028F0D10B98401C0B9003E09E
:1004E0000B98401C0B9000BF06E00B9810F8011B06
:1004F0000B90304601F0FEF800BF4021304601F07D
:1005000067F90028F9D00B980078002887D106B049
:1005100070BC5DF814FB0000000801400038014089
:1005200008B50121084600F08AFD01214FF4017051
:1005300000F092FD0720ADF8000000208DF80300C8
:100540006946474800F04CFE08BD00B591B04548EB
:1005500001F0C0FB444806904448079000200890F2
:100560006020099000200A9080200B9040000C90A1
:1005700080000D9020200E9000020F90002010901F
:1005800006A9384801F048FC0020019001208DF8B0
:1005900008008DF809004FF46020039000200490BB
:1005A00003208DF8140001A92F484C3801F091F96F
:1005B0004FF4404000F0B4FC0723032202212A48F4
:1005C0004C3801F01EFA07230222012126484C383C
:1005D00001F017FA07230122002123484C3801F0CB
:1005E00010FA012120484C3801F0AAF901211E48D7
:1005F0004C3801F09AF91C484C3801F0B8F900BFAA
:1006000019484C3801F0B8F90028F9D116484C388F
:1006100001F0BCF900BF14484C3801F0BCF90028C7
:10062000F9D101210F4801F022FC012202210D48DD
:1006300001F029FC0B208DF8000001208DF801004D
:100640008DF802008DF80300684602F080FB11B0BF
:1006500000BD10B5FFF764FFFFF777FF10BD000086
:1006600000080140080002404C24014048000020DE
:1006700008B500220092002016E000210AE001EBFC
:1006800041020C4B03EB420232F81020009B1A444B
:100690000092491C2029F2DB009A5209064B43F8CC
:1006A000202000220092401C0328E6DB0122034B9D
:1006B0001A7008BD48000020080100200D0000202D
:1006C00010B5022001F00DFC28B100210B4801F00B
:1006D0006CF9FFF7CDFF022001F017FC10BD10B53B
:1006E0000121074802F019FB10B1012005490870EB
:1006F0000121034802F022FB10BD0000002401404C
:10070000002C01400E0000201FB50121C80200F09E
:10071000A3FC41F61F40ADF800000020ADF8020038
:100720004FF41670ADF804000020ADF806008DF807
:1007300008006946364801F0CBFC19208DF80C0002
:1007400000208DF80D008DF80E0001208DF80F00AF
:1007500003A802F0FCFA012211462D4802F02FF8FE
:1007600001212B4802F010F81FBD00B587B0012110
:10077000022000F07EFC4720ADF8100044F61F6018
:10078000ADF814000020ADF81600ADF8120004A971
:10079000204801F09DFC6020ADF800000120ADF87C
:1007A00002000020ADF80600ADF8080069461948BF
:1007B00001F0CBFC0821174802F016F90120ADF832
:1007C00002000020ADF80600ADF8080069461148A7
:1007D00001F0FDFC08210F4802F00FF90120ADF8EF
:1007E00002000020ADF80600ADF80800694609488F
:1007F00001F03AFD0821074802F00CF901210548F3
:1008000002F0C2F80121034801F0BEFF07B000BDAD
:10081000002C014000040040002800DA40427047EC
:100820002DE9FC5F06460D4617460A2E11DD3046BF
:1008300002F015FF824640480168504602F0BEFDB6
:1008400081463E4902F062FD804602F022FF0446E6
:1008500001E04FF47A74B4F5FA6F01DD4FF4FA64F5
:10086000224637A1394803F033F8002D00DA00257D
:10087000384602F0F4FE834635480168584602F0D7
:100880009DFD8146284602F0EAFE0190314801684C
:10089000019802F093FD83462F4902F08CFD8246B9
:1008A000494602F085FD804602F0F3FE0446B4F5A9
:1008B0007A7F01DA4FF47A74B4F5FA6F01DD4FF400
:1008C000FA64224625A121480A3003F001F838468F
:1008D00002F0C5FE83461E480168584602F06EFDD0
:1008E0008146284602F0BBFE01901A480168019833
:1008F00002F064FD8346114902F008FD8246494634
:1009000002F056FD804602F0C4FE0446B4F5FA6FCC
:1009100001DD4FF4FA64B4F57A7F01DA4FF47A74AA
:1009200000200090034622460EA101900748113096
:1009300002F0CEFFBDE8FC9F0000002000007A44DA
:10094000636F6D2534642C2C2C00000014010020F2
:1009500008000020040000200000FA442534642C24
:100960002C2C0000253464656E64256325632563A3
:100970000000000008B50121082000F06DFB602098
:10098000ADF8000028208DF8030003208DF8020048
:1009900069460E4800F024FC01210C2000F05CFBAD
:1009A000C020ADF8000018208DF8030003208DF85A
:1009B00002006946064800F013FC0320ADF8000071
:1009C0006946024800F00CFC08BD0000000C014024
:1009D0000008014001B502E00098401E0090009818
:1009E0000028F9D108BD00B587B001214D2000F0E5
:1009F00033FB0121880300F03CFB4FF46040ADF86D
:100A0000040001208DF8060018208DF8070001A9C8
:100A1000D24800F0E5FB3020ADF8040001208DF84D
:100A2000060010208DF8070001A9CD4800F0D8FB82
:100A30000820ADF8040001208DF8060048208DF84C
:100A4000070001A9C64800F0CBFB2021C44800F0F4
:100A500074FC0020ADF808004FF48270ADF80A0075
:100A60000020ADF80C00ADF80E00ADF810004FF40A
:100A70000070ADF812001020ADF814000020ADF8A1
:100A800016000720ADF8180002A9B64802F0EEF9EA
:100A90000121B44802F08FFA07B000BD10B504463A
:100AA00000BF0221AF4802F00AFB0028F9D021461E
:100AB000AC4802F0B1FA00BF0121AA4802F0FFFAE7
:100AC0000028F9D0A74802F0A9FAC0B210BD70B54D
:100AD00005460C461021A24800F031FC2021A04818
:100AE00000F02DFC2846FFF7D9FF06462046FFF709
:100AF000D5FF20219A4800F020FC304670BD70B52B
:100B000004461021964800F01AFC2021944800F079
:100B100016FC2046FFF7C2FFFF20FFF7BFFF054688
:100B200020218F4800F009FC284670BD2DE9F041D6
:100B300007460D4616461021894800F000FC20218A
:100B4000874800F0FCFB3846FFF7A8FF80460024EA
:100B500005E0FF20FFF7A2FF2855601CC4B2B44295
:100B6000F7DB20217E4800F0E8FB4046BDE8F0813D
:100B70002DE9F04107460C4615461021784800F053
:100B8000DEFB2021764800F0DAFB3846FFF786FFCF
:100B90008046002605E014F8010BFFF77FFF701C6C
:100BA000C6B2AE42F7DB20216D4800F0C6FB4046DE
:100BB000BDE8F08110B51021694800F0C0FB0522A6
:100BC00069492A20FFF7D4FF01212120FFF77FFF89
:100BD00001212220FFF77BFF28212520FFF777FF47
:100BE0001B213120FFF773FF0F212620FFF76FFF36
:100BF0000F212020FFF76BFF1021594800F09DFBCB
:100C000010BD10B51021564800F099FB0522574938
:100C10003020FFF7ADFF052253492A20FFF7A8FF38
:100C200001212120FFF753FF01212220FFF74FFF71
:100C30001A212420FFF74BFF28212520FFF747FF2B
:100C40000F212620FFF743FF0E212020FFF73FFF53
:100C50001021434800F071FB4FF6FF70FFF7BAFE1A
:100C600010BD1FB542A103C9CDE90201052202A9A9
:100C70003020FFF77DFF052269461020FFF756FF61
:100C8000002406E01DF80400C22800D003E0601C28
:100C9000C4B2052CF6DB00BF052C02D1012004B044
:100CA00010BD0020FBE770B5054610212C4800F070
:100CB00046FB1B222946A020FFF75AFF1021284897
:100CC00000F03BFB00BF0821254800F01CFB00287A
:100CD000F9D10720FFF713FF044621462720FFF72D
:100CE000F6FEFF21E120FFF7F2FE04F0100008B14C
:100CF000102070BD04F0200008B12020F9E700208A
:100D0000F7E770B505461021154800F016FB00BF47
:100D10000821134800F0F7FA0028F9D11648FFF728
:100D200059FE10210E4800F00AFB0720FFF7E7FEEE
:100D3000044621462720FFF7CAFE04F0400050B1C8
:100D40001B2229466120FFF7F1FEFF21E220FFF779
:100D5000BEFE402070BD0020FCE70000000C0140FA
:100D60000008014000380040140000200F0000205F
:100D7000C2C2C2C2C2000000FFFF0300DF48006819
:100D800040F00100DD49086008464068DC49084041
:100D9000DA49486008460068DA490840D7490860DF
:100DA0000846006820F4802008600846406820F467
:100DB000FE0048604FF41F0088607047CF49096803
:100DC00021F48031CD4A11601146096821F4802157
:100DD0001160B0F5803F03D0B0F5802F0ED106E052
:100DE000C649096841F48031C44A116007E0C3492B
:100DF000096841F4A021C14A116000E000BF00BFB2
:100E0000704710B501460022002300204A11012A34
:100E100002D1BA4C236806E0022A02D1B74C236AF9
:100E200001E0B64C636A01F01F02012494401C40AB
:100E30000CB1012000E0002010BD38B5002000906A
:100E40000024002500BF3120FFF7DBFF0546009896
:100E5000401C00900098B0F5A06F01D0002DF2D09A
:100E60003120FFF7CEFF08B1012400E00024204626
:100E700038BD01460020A14A106820F0F80040EA81
:100E8000C10010607047A04908607047024600200A
:100E90009A4B586820F47C1042EA01031843974BA0
:100EA0005860704798490866704701460020934A89
:100EB000506820F003000843506070478F48406836
:100EC00000F00C007047014600208C4A506820F06A
:100ED000F00008435060704701460020874A506880
:100EE00020F4E06008435060704701460020834AC8
:100EF000506820F4605040EAC1005060704729B14A
:100F00007E4A527A02437D4B5A7204E07B4A527AFF
:100F100082437A4B5A7270477B49D83108607047D8
:100F200001460020754A506820F440400843506054
:100F300070470021714A20321170704A82F82010E7
:100F4000012802D004280AD104E001216B4A203292
:100F5000117005E00521694A2032117000E000BFE0
:100F600000BF70476949086070476449096A0143D6
:100F7000624A11627047654944390860704730B56C
:100F800000210022002400235C4D6D6805F00C0157
:100F900021B1042905D0082923D105E05C4D056065
:100FA00022E05B4D05601FE0544D6D6805F4701242
:100FB000524D6D6805F48034022505EB92421CB950
:100FC000544D554305600BE04C4D6D6805F40035FC
:100FD0001DB1504D5543056002E04D4D5543056030
:100FE00002E04B4D056000BF00BF444D6D6805F049
:100FF000F0010909484D6B5C0568DD4045603F4DD7
:101000006D6805F4E061090A434D6B5C4568DD409D
:1010100085603A4D6D6805F46051C90A3E4D6B5CC0
:101020004568DD40C560354D6D6805F44041890B6C
:101030003A4D6B5CC568B5FBF3F5056130BD29B170
:101040002E4A526902432D4B5A6104E02B4A5269E1
:1010500082432A4B5A61704729B1284A9269024358
:10106000264B9A6104E0254A92698243234B9A6198
:10107000704729B1214AD2690243204BDA6104E06A
:101080001E4AD26982431D4BDA61704729B11B4A5F
:10109000D2680243194BDA6004E0184AD2688243EE
:1010A000164BDA60704729B1144A12690243134B98
:1010B0001A6104E0114A12698243104B1A617047A9
:1010C00012494039086070470F49C86470470B499E
:1010D000C87170470948406A40F08070074948620B
:1010E000704701460020054A92680A400AB1012073
:1010F00000E00020704701498872704700100240EC
:101100000000FFF8FFFFF6FE00004242800442426A
:1011100000127A0000093D0019000020290000207B
:1011200010B50446CC48844208D101210420FFF7C1
:10113000ADFF00210420FFF7A9FF46E0C748844225
:1011400008D101210820FFF7A1FF00210820FFF7A7
:101150009DFF3AE0C248844208D101211020FFF7E8
:1011600095FF00211020FFF791FF2EE0BD4884423B
:1011700008D101212020FFF789FF00212020FFF75F
:1011800085FF22E0B848844208D101214020FFF7C2
:101190007DFF00214020FFF779FF16E0B34884422D
:1011A00008D101218020FFF771FF00218020FFF787
:1011B0006DFF0AE0AE48844207D101218015FFF798
:1011C00065FF0021A015FFF761FF10BD10B50121DB
:1011D0000846FFF75BFF00210120FFF757FF10BD16
:1011E0002DE9F041024600250026002000230024BE
:1011F000002791F803C00CF00F0591F803C00CF024
:10120000100CBCF1000F03D091F802C04CEA0505A8
:1012100091F800C0BCF1000F31D0146800202BE021
:101220004FF0010C0CFA00F3B1F800C00CEA030611
:101230009E4220D183004FF00F0C0CFA03F7BC4301
:1012400005FA03FC4CEA040491F803C0BCF1280F32
:1012500006D14FF0010C0CFA00FCC2F814C00AE0F1
:1012600091F803C0BCF1480F05D14FF0010C0CFA06
:1012700000FCC2F810C0401C0828D1D31460B1F89B
:1012800000C0BCF1FF0F34DD546800202EE000F1F7
:10129000080C4FF0010808FA0CF3B1F800C00CEA92
:1012A00003069E4221D183004FF00F0C0CFA03F786
:1012B000BC4305FA03FC4CEA040491F803C0BCF1FA
:1012C000280F05D100F1080C08FA0CF8C2F81480B8
:1012D00091F803C0BCF1480F07D100F1080C4FF0A2
:1012E000010808FA0CF8C2F81080401C0828CED378
:1012F0005460BDE8F0814FF6FF71018002218170DA
:101300000421C17070470246002093680B400BB166
:10131000012000E0002070470146886880B27047D5
:1013200002460020D3680B400BB1012000E00020F2
:1013300070470146C86880B27047016170474161DB
:1013400070470AB1016100E041617047C1607047B8
:101350004FF480320A4382618161826182698269CD
:10136000704702460020434B18684FF680731840C0
:1013700040EA021008433F4B186070473E49C8617D
:101380007047F0B50A46002300240021002500F034
:101390000046B6F1004F02D1364EF16901E0354EFC
:1013A0007168C0F3034583B200F44016B6F5401FE0
:1013B00008D121F070612F4E766826F070662D4FAF
:1013C0007E6012E000F48016B6F5801F06D1032679
:1013D00006FA05F4A14341F0706106E0460D3601BE
:1013E00003FA06F6B14341F0706122B1460D3601B1
:1013F00003FA06F6314300F00046B6F1004F02D181
:101400001C4EF16101E01B4E7160F0BD30B5002251
:101410008B071C0F0F2303FA04F2164B08338C10B2
:1014200053F824309343134C08348D1044F825307E
:1014300023468C1053F824308C07240F00FA04F450
:1014400023430C4C08348D1044F8253030BD0A4934
:10145000DC3108607047000000080140000C0140CA
:10146000001001400014014000180140001C014020
:1014700000200140000001400000204210B5044659
:10148000FB48844209D101218803FFF7FFFD0021B9
:101490004FF48040FFF7FAFD32E0F648844209D16C
:1014A00001214804FFF7FFFD00214FF40030FFF752
:1014B000FAFD25E0F048844209D101218804FFF7B4
:1014C000F2FD00214FF48020FFF7EDFD18E0EB481E
:1014D000844209D10121C804FFF7E5FD00214FF442
:1014E0000020FFF7E0FD0BE0E548844208D1012130
:1014F0000805FFF7D8FD00214FF48010FFF7D3FD5A
:1015000010BD2DE9F04786B005460E460024A246E0
:1015100000BFA1460027B08900B100BF2F462C8A2A
:101520004CF6FF700440F08804432C82AC894EF6E0
:10153000F3100440B088318908437189084304439B
:10154000AC81AC8A4FF6FF400440B0890443AC82C2
:1015500001A8FFF714FDC648874202D1DDF810A0AC
:1015600001E0DDF80CA0A88900F4004040B10AEBCE
:10157000CA0000EB0A1031684900B0FBF1F807E03F
:101580000AEBCA0000EB0A1031688900B0FBF1F8E1
:101590006420B8FBF0F004012009642101FB1089EC
:1015A000A88900F4004040B1322000EBC900B0FB34
:1015B000F1F000F00700044308E0322000EB0910CE
:1015C0006421B0FBF1F000F00F0004432C8106B061
:1015D000BDE8F0874FF41651016000218180C18081
:1015E00001810C21418100218181704710B50246A3
:1015F0000020108A4FF2FF0318400B884C882343C9
:101600008C882343CC8823431843108210BD0021CB
:10161000018041808180C180704721B1828942F47C
:101620000052828104E082894DF6FF731A40828164
:101630007047F0B50346002400260025002040F640
:101640006A17B94200D100BF1846C1F3421401F035
:101650001F06012707FA06F5012C01D10C3004E022
:10166000022C01D1103000E014301AB107682F436A
:10167000076002E00768AF430760F0BD1AB1838AD4
:101680000B43838202E0838A8B4383827047028A02
:101690004FF6F0731A400282028A0A4302827047B0
:1016A00082894FF2FF731A40828182890A438281C4
:1016B000704721B1828942F00202828104E082896E
:1016C0004FF6FD731A4082817047028A4FF6DF732E
:1016D0001A400282028A0A430282704721B1028ABA
:1016E00042F48042028204E0028A4BF6FF731A4001
:1016F00002827047C1F308028280704701468888E1
:10170000C0F308007047818941F001018181704771
:10171000028BD2B20283028B42EA0122028370471B
:10172000028B02F47F420283028B0A4302837047DA
:1017300021B1828A42F02002828204E0828A4FF63E
:10174000DF731A408282704721B1828A42F0100210
:10175000828204E0828A4FF6EF731A4082827047D9
:1017600021B1828A42F00802828204E0828A4FF626
:10177000F7731A408282704721B1828942F4004295
:10178000828103E08289C2F30E028281704721B117
:10179000828A42F40062828204E0828A4FF2FF73FE
:1017A0001A4082827047828A4FF6FB731A40828207
:1017B000828A0A438282704721B1828A42F0020201
:1017C000828204E0828A4FF6FD731A40828270475B
:1017D00002460020B1F5007F00D100BF13880B4006
:1017E0000BB1012000E00020704701F40072B2F557
:1017F000007F00D100BFCA430280704770B5024627
:10180000002400230025002040F66A16B14200D1D2
:1018100000BFC1F3421501F01F03012606FA03F3CE
:10182000012D02D19689334006E0022D02D1168A9D
:10183000334001E0968A33400C12012606FA04F484
:101840001688344013B10CB1012000E0002070BDB7
:1018500010B50022002340F66A14A14200D100BF57
:101860000A1201249440A3B2DC43048010BD00009E
:10187000003801400044004000480040004C004057
:101880000050004010B50446FA48844208D10121B6
:101890004015FFF7FBFB00216015FFF7F7FB17E092
:1018A000F548844208D101210015FFF7EFFB002124
:1018B0002015FFF7EBFB0BE0F048844208D1012133
:1018C000C803FFF7E3FB00214FF40040FFF7DEFB06
:1018D00010BD30B50246002000235068E84C20407F
:1018E0000D790C6844EA0524204350609068E54C6B
:1018F0002040D1E902542C434D7944EA4504204369
:101900009060D06A20F470000C7C641EE4B2234323
:1019100040EA0350D06230BD002101600171417185
:101920008160C16001210174704721B1826842F079
:101930000102826003E0826822F001028260704747
:1019400021B1826842F48072826003E0826822F4EE
:1019500080728260704710B50023CBB21AB1446820
:101960001C43446002E044689C43446010BD8168AD
:1019700041F0080181607047014600208A6802F04A
:1019800008020AB1012000E000207047816841F0A0
:10199000040181607047014600208A6802F0040259
:1019A0000AB1012000E00020704721B1826842F4B2
:1019B000A002826003E0826822F4A0028260704785
:1019C000014600208A6802F480020AB1012000E08A
:1019D0000020704710B50A4600210023416821F419
:1019E0006041531E41EA4331416010BD21B142685C
:1019F00042F40062426003E0426822F40062426006
:101A00007047F0B504460D4600200021092D11DD78
:101A1000E068A5F10A0606EB4607072606FA07F175
:101A20008843A5F10A0606EB460603FA06F10843C9
:101A3000E0600CE0206905EB4507072606FA07F190
:101A4000884305EB450603FA06F108432061072A9F
:101A50000FDA606B561E06EB86071F2606FA07F1A3
:101A60008843561E06EB860605FA06F108436063B6
:101A700022E00D2A0FDA206BD61F06EB86071F2601
:101A800006FA07F18843D61F06EB860605FA06F12B
:101A90000843206310E0E06AA2F10D0606EB86071A
:101AA0001F2606FA07F18843A2F10D0606EB86060B
:101AB00005FA06F10843E062F0BD21B1826842F404
:101AC0008012826003E0826822F480128260704794
:101AD0000146C86C80B2704766484C300068704759
:101AE00021B1426842F48062426003E0426822F41D
:101AF00080624260704721B1426842F48052426085
:101B000003E0426822F48052426070470A46002196
:101B1000816821F4E04111438160704721B18268FE
:101B200042F40042826003E0826822F40042826054
:101B3000704721B1826842F40212826003E0826839
:101B400022F4021282607047014600208A6802F483
:101B500000120AB1012000E000207047F0B50446F1
:101B60001546002000220026092911DDE068A1F1B8
:101B70000A0707EB470C072707FA0CF29043A1F17D
:101B80000A0707EB470703FA07F21043E0600CE08F
:101B9000206901EB410C072707FA0CF2904301EB97
:101BA000410703FA07F210432061A06BC0F301560E
:101BB000EF1C06F1010CA7EB0C0707EB870C1F27A6
:101BC00007FA0CF29043EF1C06F1010CA7EB0C078F
:101BD00007EB870701FA07F21043A063F0BD10B5C9
:101BE0000A4600210023816B21F44011531E41EA73
:101BF0000351816310BD08B5002300930090009B42
:101C00000B440093009B1A6008BD08B502460020F3
:101C10000090009201F12800009B18440090009869
:101C2000006880B208BD0A4600214168164B194081
:101C30001143416070474162826270470A46002149
:101C4000416821F01F0111434160704740B10949CB
:101C50000831096841F40001064A0832116007E0C2
:101C600004490831096821F40001024A0832116070
:101C7000704700000024014000280140003C014062
:101C8000FFFEF0FFFDF7F1FFFFFD3FFF02460020E2
:101C900013680B400BB1012000E000207047CA43DD
:101CA0000260704770B502460020002300240B122A
:101CB0005568CEB205EA060415681D4015B10CB191
:101CC000012000E0002070BD00220A12D34303600F
:101CD0007047000001684FF6FE721140016000215C
:101CE000016041608160C1608D49884208D18C49A2
:101CF0000839496841F00F01894A083A51608AE081
:101D000087491431884208D185490839496841F02A
:101D1000F001834A083A51607DE0814928318842C8
:101D200008D17F490839496841F470617C4A083A12
:101D3000516070E07A493C31884208D178490839CD
:101D4000496841F47041764A083A516063E0744949
:101D50005031884208D172490839496841F47021EC
:101D60006F4A083A516056E06D496431884208D1A3
:101D70006B490839496841F47001694A083A516071
:101D800049E067497831884208D16549083949688E
:101D900041F07061624A083A51603CE06149884212
:101DA00006D1011F096841F00F01021F116032E0E6
:101DB0005C491431884208D15A49091F096841F029
:101DC000F001584A121F116025E056492831884217
:101DD00008D15449091F096841F47061514A121F22
:101DE000116018E04F493C31884208D14D49091F24
:101DF000096841F470414B4A121F11600BE04949D8
:101E00005031884207D14749091F096841F47021C0
:101E1000444A121F1160704710B50022026847F64D
:101E2000F0739A430C6A8B6823430C6923434C6913
:101E300023438C692343CC6923434C6A23438C6A34
:101E400023431A430260CB6843600B6883604B688E
:101E5000C36010BD0021016041608160C16001610B
:101E600041618161C161016241628162704721B15A
:101E7000026842F00102026004E002684FF6FE735D
:101E80001A40026070471AB103680B43036002E016
:101E900003688B43036070474160704701464868A0
:101EA00080B2704701460020002201F080531BB130
:101EB0001C4B083B1A6802E0194B083B1A6802EAFF
:101EC00001030BB1012000E00020704700F08051B9
:101ED00019B11449091F086002E011490839486026
:101EE000704701460020002201F080531BB10D4BCA
:101EF000083B1A6802E00A4B083B1A6802EA010331
:101F00000BB1012000E00020704700F0805119B1B2
:101F10000449091F086002E0014908394860704718
:101F2000080002400804024010B50446FE488442FE
:101F300008D10121C014FFF7A9F80021E014FFF730
:101F4000A5F8C4E0B4F1804F08D101210846FFF79D
:101F5000AAF800210120FFF7A6F8B8E0F348844270
:101F600008D101210220FFF79EF800210220FFF78F
:101F70009AF8ACE0EE48844208D101210420FFF732
:101F800092F800210420FFF78EF8A0E0E94884428F
:101F900008D101210820FFF786F800210820FFF76B
:101FA00082F894E0E448844208D101211020FFF730
:101FB0007AF800211020FFF776F888E0DF488442A5
:101FC00008D101212020FFF76EF800212020FFF723
:101FD0006AF87CE0DA48844208D101214014FFF716
:101FE00055F800216014FFF751F870E0D54884429D
:101FF00009D10121C804FFF749F800214FF400205E
:10200000FFF744F863E0D048844209D10121080574
:10201000FFF73CF800214FF48010FFF737F856E047
:10202000CA48844209D101214805FFF72FF8002151
:102030004FF40010FFF72AF849E0C548844208D160
:1020400001214020FFF72FF800214020FFF72BF857
:102050003DE0C048844208D101218020FFF723F8E9
:1020600000218020FFF71FF831E0BB48844208D1EF
:1020700001218015FFF717F80021A015FFF713F8CD
:1020800025E0B648844209D101210804FEF7FEFF8D
:1020900000214FF48030FEF7F9FF18E0B048844289
:1020A00009D101214804FEF7F1FF00214FF400306F
:1020B000FEF7ECFF0BE0AB48844208D10121880415
:1020C000FEF7E4FF00214FF48020FEF7DFFF10BD94
:1020D00000220288944B98420ED0994B98420BD024
:1020E000B0F1804F08D0914B984205D0904B984268
:1020F00002D0904B984204D14FF68F731A404B8810
:102100001A438D4B984207D08C4B984204D04FF61F
:10211000FF431A40CB881A4302808B8883850B8843
:102120000385814B98420BD0854B984208D08B4B4E
:10213000984205D08A4B984202D08A4B984201D1EE
:102140000B7A038601238382704770B50024002236
:102150000023058C4FF6FE7635400584028C83887B
:10216000048B4FF68F752C40B51E2C400D882C43E8
:10217000751E2A400D892A434D882A436A4DA8427C
:102180000BD06F4DA84208D0744DA84205D0744DB5
:10219000A84202D0734DA84213D14FF6F7752A40DA
:1021A0004D892A434FF6FB752A408D882A434FF606
:1021B000FF652B404FF6FF552B408D892B43CD8972
:1021C0002B4383800483CD888586028470BD70B5DF
:1021D000002400220023058C4FF6EF76354005845D
:1021E000028C8388048B48F6FF752C404FF6FF4520
:1021F0002C400D884FF6FF7606EA05252C434FF656
:10220000DF752A400D8906EA05152A434D8806EA3E
:1022100005152A43444DA84202D0494DA8421DD17C
:102220004FF67F752A404D894FF6FF7606EA051571
:102230002A434FF6BF752A408D8806EA05152A43C2
:102240004FF6FF352B404FF2FF752B408D8906EA84
:1022500085052B43CD8906EA85052B4383800483BE
:10226000CD880587028470BD70B50024002200234C
:10227000058C4FF6FF6635400584028C8388848B7D
:102280004FF68F752C404FF6FC752C400D882C4373
:102290004FF6FF552A400D894FF6FF7606EA0525D1
:1022A0002A434D8806EA05252A431F4DA84202D03D
:1022B000234DA8421DD14FF2FF752A404D894FF69C
:1022C000FF7606EA05252A434FF6FF352A408D881A
:1022D00006EA05252A434EF6FF752B404DF6FF759D
:1022E0002B408D8906EA05152B43CD8906EA051595
:1022F0002B4383808483CD888587028470BD70B52D
:10230000002200230024058C4EF6FF76354005841C
:10231000038C8488828B48F6FF752A404FF6FF4570
:102320002A400D8820E00000002C014000040040FD
:1023300000080040000C0040001000400014004065
:1023400000340140004C0140005001400054014065
:1023500000180040001C00400020004000400140E8
:1023600000440140004801404FF6FF7606EA05258B
:102370002A434DF6FF752B400D8906EA05352B43A0
:102380004D8806EA05352B43FA4DA84202D0FA4D96
:10239000A84208D14BF6FF752C408D894FF6FF7689
:1023A00006EA85152C4384808283CD88A0F84050AE
:1023B000038470BD828B4FF2FF331A408283828B7D
:1023C0004FF6FF7303EA01231A4382837047F0B587
:1023D0000C461546002200210026078C4EF6FF7C95
:1023E00007EA0C070784828B018C4FF6FF7707EA18
:1023F000043640F6FF473A404FF6FF7707EA0527D5
:102400003A434FF6FF7707EA03373A43D94FB842CA
:102410000ED0D94FB8420BD0B0F1804F08D0D74F73
:10242000B84205D0D64FB84202D0D64FB84206D1F6
:102430004DF6FF77394046F48057394305E047F6BB
:10244000FF57394044F48057394382830184F0BDFB
:10245000828B4FF6F3731A408283828B0A43828306
:102460007047F0B50C461546002200210026078C67
:102470004FF6FF6C07EA0C070784828B018C4FF63E
:10248000FF7707EA04264FF60C773A404FF6FF77BE
:1024900007EA03172F433A43B64FB8420ED0B64F60
:1024A000B8420BD0B0F1804F08D0B44FB84205D03D
:1024B000B34FB84202D0B34FB84206D14FF6FF57E0
:1024C000394046F48077394305E04FF2FF573940F1
:1024D00044F48077394382830184F0BD028B4FF24C
:1024E000FF331A400283028B4FF6FF7303EA012386
:1024F0001A4302837047F0B50C46154600220021AE
:102500000026078C4FF6EF7C07EA0C070784028B46
:10251000018C4FF6FF7707EA041640F6FF473A4072
:102520004FF6FF7707EA03373A434FF6FF7707EA9C
:1025300005273A438F4FB8420ED08F4FB8420BD089
:10254000B0F1804F08D08D4FB84205D08C4FB842C3
:1025500002D08C4FB84206D14FF6DF77394046F0B3
:102560001007394305E04FF65F77394044F0100714
:10257000394302830184F0BD028B4FF6F3731A4096
:102580000283028B0A4302837047F0B50C4615465E
:1025900000220021068C4FF6FE773E400684028B17
:1025A000018C4FF60C7632407E1C06EA03162E4351
:1025B0003243704EB0420ED06F4EB0420BD0B0F1ED
:1025C000804F08D06D4EB04205D06D4EB04202D063
:1025D0006C4EB04206D14FF6FD76314044F0010614
:1025E000314305E04FF6F576314044F001063143C2
:1025F00002830184F0BD70B505460C465D488542F6
:102600000ED05D4885420BD0B5F1804F08D05B48B5
:10261000854205D05A48854202D05A48854200D1A9
:1026200000E000BF208850B92389A288618828462D
:10263000FFF7ABFFE1882846FFF79EFF25E02088E3
:1026400004280AD12389A28861882846FFF753FF0E
:10265000E1882846FFF742FF17E0208808280AD1C2
:102660002389A28861882846FFF7FBFEE188284677
:10267000FFF7EEFE09E02389A28861882846FFF76C
:10268000A6FEE1882846FFF795FE70BD2DE9F041D2
:1026900005460C4600260127608808B9022600E09E
:1026A0000026A088012801D1022700E00127208808
:1026B000A0B92389A28861882846FFF766FFE188D0
:1026C0002846FFF759FF23893A4631462846FFF747
:1026D00012FFE1882846FFF701FF13E02389A28853
:1026E00061882846FFF707FFE1882846FFF7F6FED6
:1026F00023893A4631462846FFF747FFE1882846B6
:10270000FFF73AFFBDE8F0810A884B881A438B88AF
:102710001A43CB881A430B891A434B891A438B8976
:102720001A43A0F8442070474FF6FF7181800021C2
:102730000180C18041800172704700210180418089
:102740008180C180018141818181C18170470021E7
:1027500001804180012181800021C1800181704779
:102760000021018041808180C1800181418181817E
:1027700070470000002C014000340140000400407C
:1027800000080040000C004021B1028842F0010224
:10279000028004E002884FF6FE731A400280704700
:1027A00031B1B0F8442042F40042A0F8442005E0E2
:1027B000B0F84420C2F30E02A0F8442070471AB1CA
:1027C00083890B43838102E083898B438381704734
:1027D0008182704741EA0203A0F8483070471AB17D
:1027E00083890B43838102E083898B438381704714
:1027F00001894FF6F8721140018170470A460021A5
:1028000001894FF68F73194011430181704730B52C
:1028100004460D4629462046FFF7F0FF208940F088
:102820000700208130BD2DE9F04104460D461646D3
:102830001F46602D06D13B46012231462046FFF758
:102840005AFE05E03B46012231462046FFF79DFE39
:1028500029462046FFF7D2FF208940F0070020815B
:10286000BDE8F08130B50C4600210189C9B24FF6B0
:10287000FF7505EA0325154325432943018130BD32
:102880002DE9F04105460E4617469846002443467A
:102890003A4631462846FFF7E5FF2C894FF6F87097
:1028A000044044F007044FF68F70044044F0700475
:1028B0002C81BDE8F081F0B504460D4616461F4652
:1028C0003B46324629462046FFF7CCFF208940F49C
:1028D00080402081F0BD0185828270470A46002138
:1028E00001884FF68F731940114301807047F0B58E
:1028F0000C4615461E460021002200230189028B4A
:10290000038C4FF6F877394021434FF6FC473A40A5
:1029100040F201173A434FF6DD773B404FF6FF7721
:1029200007EA06172F433B43018102830384F0BD6E
:102930000A460021018B4FF68F7319401143018322
:1029400070470A460021018B48F6FF7319404FF685
:10295000FF7303EA02231943018370470A460021EB
:10296000818B4FF68F7319401143818370470A465C
:102970000021818B48F6FF7319404FF6FF7303EA7D
:10298000022319438183704721B1028842F08002FB
:10299000028004E002884FF67F731A40028070477D
:1029A00021B1828842F00402828004E082884FF6DE
:1029B000FB731A408280704721B1828842F008027E
:1029C000828004E082884FF6F7731A408280704755
:1029D00021B1828842F00102828004E082884FF6B1
:1029E000FE731A40828070470A460021018B4FF621
:1029F000F77319401143018370470A460021018B88
:102A00004FF2FF7319404FF6FF7303EA0223194395
:102A1000018370470A460021818B4FF6F7731940F6
:102A20001143818370470A460021818B4FF2FF7367
:102A300019404FF6FF7303EA02231943818370475D
:102A40000A460021018B4FF6FB73194011430183A5
:102A500070470A460021018B4FF6FF3319404FF6AD
:102A6000FF7303EA02231943018370470A460021DA
:102A7000818B4FF6FB7319401143818370470A46DF
:102A80000021818B4FF6FF3319404FF6FF7303EAA5
:102A900002231943818370470A460021018B4FF6B8
:102AA0007F7319401143018370470A460021018B4F
:102AB000C1F30E014FF6FF7303EA022319430183AA
:102AC00070470A460021818B4FF67F7319401143EE
:102AD000818370470A460021818BC1F30E014FF6B6
:102AE000FF7303EA02231943818370470A460021DA
:102AF000018C4FF6FD7319401143018470470A465B
:102B00000021018C4FF6F77319401143018470477F
:102B10000A460021018C4FF6DF7319404FF6FF7310
:102B200003EA02131943018470470A460021018C0D
:102B30004FF67F7319404FF6FF7303EA02131943F0
:102B4000018470470A460021018C4FF6FF5319405B
:102B50004FF6FF7303EA02231943018470470A46C4
:102B60000021018C4FF2FF7319404FF6FF7303EA07
:102B700002231943018470470A460021018C4DF657
:102B8000FF7319404FF6FF7303EA023319430184C0
:102B9000704730B5002301248C40A3B2048C9C43C1
:102BA0000484048C02FA01F5ADB22C43048430BDD8
:102BB00030B5002304248C40A3B2048C9C430484CD
:102BC000048C02FA01F5ADB22C43048430BD70B51B
:102BD0000346002000241846183001258D40ACB271
:102BE0001D8CA5431D8409B1082909D100EB6100A2
:102BF000056825F0700505600568154305600EE061
:102C00000D1FC5F34E052844056825F4E045056011
:102C100005684FF6FF7606EA02263543056070BD6B
:102C200021B1028842F00202028004E002884FF6DD
:102C3000FD731A400280704721B1028842F00402FD
:102C4000028004E002884FF6FB731A40028070474E
:102C500021B1828842F08002828004E082884FF6AF
:102C60007F731A408280704702884FF6F7731A40CC
:102C7000028002880A430280704782884FF68F7371
:102C80001A40828082880A438280704702894FF608
:102C9000F8731A40028102890A430281704702894F
:102CA0004FF67F731A40028102890A4302817047FE
:102CB000818470478185704781867047018770479E
:102CC00081877047A0F84010704702884FF6FF4395
:102CD0001A40028002880A43028070470146888EAB
:102CE00070470146088F70470146888F704701463C
:102CF000B1F8400070470146888C70470146088D46
:102D0000704702460020138A0B400BB1012000E0FF
:102D100000207047CA430282704730B50246002047
:102D200000230024158A05EA0103958905EA0104B8
:102D300013B10CB1012000E0002030BDCA43028273
:102D40007047000031490143314A1160704770B546
:102D5000002100230F22C47804B32D4C246804F40E
:102D6000E064C4F5E064210AC1F10403CA40447878
:102D700004FA03F18478144021430901254C0678B4
:102D8000A155047804F01F050124AC4005786D11AD
:102D9000AD0005F1E025C5F8004109E0047804F034
:102DA0001F050124AC401C4D0678761145F82640DD
:102DB00070BD1A4A0A400243154B1B1F1A60704728
:102DC00039B1134A121D12680243114B1B1D1A60C0
:102DD00006E00F4A121D126882430D4B1B1D1A603C
:102DE0007047042808D14FF0E021096941F004013F
:102DF0004FF0E022116107E04FF0E021096921F076
:102E000004014FF0E0221161704700000000FA0554
:102E10000CED00E000E400E080E100E080FFFF1F37
:102E200010B50446BE48844208D101218014FEF743
:102E30002DF90021A014FEF729F916E0B9488442C3
:102E400008D101210014FEF72EF900212014FEF70D
:102E50002AF90AE0B448844207D10121C013FEF7E1
:102E600022F90021E013FEF71EF910BD10B5002273
:102E7000028802F441520B884C8823438C882343F8
:102E8000CC8823430C8923434C8923438C892343D7
:102E9000CC8923431A430280838B4FF2FF74234073
:102EA00083830B8A038210BD2DE9F04F85B0054660
:102EB0000C464FF0000902274FF000084FF0010BBD
:102EC0000026B246A88B4FF240010840A88302209A
:102ED0002884B5F81C90A068022801D100BF38E012
:102EE000A08810B94FF0010B01E04FF0020B8D48A4
:102EF000854200D100E000BF6846FEF740F8DDF8EB
:102F000000A0E088B0F5007F0AD14FEA1A2000EB5C
:102F100080004000A168B0FBF1F0401D86B20BE0DC
:102F20004FEA4B10BAFBF0F000EB80004000A168C4
:102F3000B0FBF1F0401D86B20A20B6FBF0F606F0B9
:102F40000108A6EB0800C0F34F074FF6FF7000EA38
:102F50000828022F01DBFF2F02DD02274FF00008B7
:102F6000E08840EA080038432884A088A189084303
:102F7000618808432188084340F4006040EA090959
:102F8000A5F81C9005B0BDE8F08F002101804180BC
:102F90008180C180018141818181C18107210182BC
:102FA00070470021018041808180C18002218160C1
:102FB00000218181704721B1028842F040020280E5
:102FC00004E002884FF6BF731A400280704721B1B7
:102FD000828B42F48062828304E0828B4FF6FF335F
:102FE0001A408283704730B5002400230C1101255C
:102FF000A540ABB21AB185881D43858002E0858863
:103000009D43858030BD1AB183880B43838002E0E5
:1030100083888B438380704781817047014688890C
:1030200070474FF6FF62914204D0028842F48072EA
:10303000028004E002884FF6FF631A400280704766
:1030400021B1828842F00402828004E082884FF637
:10305000FB731A408280704702884FF2FF731A4058
:10306000028002880A4302807047018841F480513F
:103070000180704721B1028842F40052028004E0CE
:1030800002884DF6FF731A40028070470246002006
:10309000012901D0108B00E0908A70470146088A10
:1030A0007047B1F5804F04D1028842F4804202801B
:1030B00004E002884BF6FF731A4002807047024614
:1030C000002013890B400BB1012000E00020704765
:1030D000CA4302817047F0B5024600200024002355
:1030E000002501F00F070126BE40B4B20B110126E6
:1030F0009E40B3B2968806EA03051689264016B1AB
:103100000DB1012000E00020F0BD10B5002201F05B
:103110000F040123A3409AB2D343038110BD0000E2
:103120000030014000380040003C00400CB5002059
:10313000019000906C48006840F480306A49086053
:1031400000BF6948006800F4003000900198401CFE
:103150000190009818B90198B0F5A06FF1D16248BC
:10316000006800F4003010B10120009001E0002060
:1031700000900098012843D15C48006840F010009E
:103180005A4908600846006820F0030008600846B5
:10319000006840F0020008605348406852494860A7
:1031A0000846406848600846406840F480604860CF
:1031B0000846406820F47C1048600846406840F4A7
:1031C000E81048600846006840F08070086000BF62
:1031D0004548006800F000700028F9D04248406877
:1031E00020F00300404948600846406840F0020073
:1031F000486000BF3C48406800F00C000828F9D146
:103200000CBD10B5FFF792FF10BD10B53648006831
:1032100040F00100344908600846406834490840DD
:103220003149486008460068324908402E49086024
:103230000846006820F4802008600846406820F4B2
:10324000FE0048604FF41F008860FFF7DAFF4FF080
:1032500000602949086010BD10B50021002000223F
:10326000214B5B6803F00C0121B1042906D0082929
:1032700028D107E0214B224C236027E01F4B204C34
:10328000236023E0184B5B6803F47010164B5B68F7
:1032900003F48032022303EB904022B9194B4343DD
:1032A000174C23600DE0104B5B6803F4003323B12F
:1032B000144B4343124C236003E0104B4343104C28
:1032C000236003E00D4B0E4C236000BF00BF064B94
:1032D0005B68C3F303130C4CE15C094B1B68CB40E8
:1032E000074C236010BD0000001002400020024087
:1032F0000000FFF8FFFFF6FE08ED00E000127A0084
:103300003000002000093D0034000020F0B480EAC5
:103310000102D40F4200B2EB410F02D2024608462E
:1033200011464A0042D0C30DDDB2C1F3C752AD1AF7
:10333000202D35DAC1F3160141F4000204B15242E6
:10334000C5F1200602FA06F12A411044B3EBD05F22
:1033500023D0C4B1012DA0EBC35009DCF0BC4FF069
:10336000004202EAC352DBB200F5000000F0E5B90A
:10337000400000F1807000EBC350A0F1807040EA83
:10338000D170490009E0490841EAC071A0EBC3507F
:1033900000F50000400800EBC350F0BC00F0C4B9D9
:1033A0006142012202EB4101001BF6E7F0BC7047CD
:1033B00081F00041AAE780F00040A7E780EA01021F
:1033C00010B502F00043400022D04A001FD0010E89
:1033D00001EB1261C0F35600C2F3560240F4000044
:1033E00042F40002A0FB022000047F39140400D044
:1033F000401C50EA124001D44000491EC2B20C06E3
:1034000004EBD010401C4008802A02D003E00020CA
:1034100010BD20F00100002900DA0020184310BD83
:1034200030B480EA010202F0004530F0004221F0A1
:10343000004013D090B1C30DD40DC2F31601C0F3F8
:103440001600E41A41F4000140F400027D34914278
:1034500001D3641C00E04900002C02DA30BC0020DB
:1034600070474FF400000023914201D3891A0343AF
:1034700040084FEA4101F7D151B1914202D14FF0DA
:10348000004105E002D24FF0010101E06FF00101BF
:1034900003EBC450284430BC00F046B92DE9FE4F80
:1034A00081EA030404F0004421F0004100944FF04D
:1034B000000B23F0004350EA01045ED052EA0304FB
:1034C0005BD0C3F30A54C1F30A552C44A4F2F3347D
:1034D0000194A0FB0254C1F3130141F48011C3F322
:1034E000130343F4801301FB024400FB034E840AE0
:1034F000970A44EA815447EA8357A4FB0768029578
:103500008D0A05FB07854FEA932C04FB0C54270515
:10351000029D4FEA065847EA1637B5EB08056EEBF1
:10352000070C870E920E47EA811742EA8312A7FB27
:103530000201B6EB0B0164EB00042B0D43EA0C33E4
:103540005E1844EB1C50DA465146E7FB0201C5F316
:1035500013044FEA0B3343EA14534FEA0432019C3D
:1035600043EA0603A4F10C040294009CCDE900B4E4
:1035700000F01EF903B0BDE8F08F00200146F9E726
:103580002DE9F04D81EA030404F0004B21F00045E1
:1035900014464FF0000A23F0004150EA050220D003
:1035A00054EA01021DD0C5F30A570246C5F31303BE
:1035B000C1F31300C1F30A5640F4801543F480139D
:1035C000A7EB0608101BD64608F2FD3873EB050082
:1035D00002D308F1010801E092185B41B8F1000F35
:1035E00003DA00200146BDE8F08D00204FF4801181
:1035F000064684460EE0171B73EB050705D3121B26
:1036000063EB050306434CEA010C49084FEA30001E
:1036100092185B4150EA0107EDD152EA030012D043
:1036200082EA040083EA0501084305D0101BAB4180
:1036300006D20122002306E000224FF0004302E000
:103640006FF0010253101AEB06004CEB085110EB1F
:103650000A0041EB0B01BDE8F04D00F09CB8C10F32
:1036600080EAE0700844CA079623002100F065B89C
:103670000EB5C10F80EAE0700844CA07002140F28D
:1036800033438DE80E000A460B4600F091F803B074
:1036900000BD00F0004220F00040C10DC0F3160054
:1036A00040F400007F2901DA00207047962903DCEE
:1036B000C1F19601C84001E096398840002AF4D053
:1036C0004042704701F0004330B421F0004150EA1D
:1036D000010206D00A0DA2F56072C1F31301002A9F
:1036E00002DC30BC00207047440F44EAC104C10032
:1036F000E01830BC00EBC25000F016B830B50B46F5
:10370000014600202022012409E021FA02F59D4211
:1037100005D303FA02F5491B04FA02F52844151EE5
:10372000A2F10102F1DC30BD0029A8BF7047401CA6
:10373000490008BF20F00100704710B4B0FA80FCC7
:1037400000FA0CF050EA010404BF10BC704749B104
:10375000CCF1200421FA04F411FA0CF118BF012174
:1037600021430843A3EB0C01CB1D4FEA00614FEA54
:10377000102042BF002010BC704700EBC350104423
:103780000029A4BF10BC7047401C490008BF20F0AE
:10379000010010BC704710B5002B08DA401C41F145
:1037A000000192185B411A4301D120F0010010BDC5
:1037B0002DE9F04D92469B4611B1B1FA81F202E03B
:1037C000B0FA80F22032904600F052F804460F46DC
:1037D00040EA0A0041EA0B0153465A46084313D017
:1037E000114653EA010019D0C8F14002504600F0DA
:1037F0004EF805460E4650465946424600F038F807
:10380000084305D0012004E020463946BDE8F08D8C
:103810000020054346EAE0762C4337430A986305C7
:10382000E40AA0EB08000022FD0A44EA47540A30EB
:1038300002D500200146E9E7010510196941DDE9DB
:10384000084500196941BDE8F04DA4E7064C074D55
:1038500006E0E06840F0010394E807009847103460
:10386000AC42F6D3FCF768FC643C0008843C0008DA
:10387000202A04DB203A00FA02F100207047914030
:10388000C2F1200320FA03F3194390407047202A25
:1038900004DB203A21FA02F00021704721FA02F3FA
:1038A000D040C2F120029140084319467047000001
:1038B0000FB4054B10B503A9044A029800F02CF888
:1038C00010BC5DF814FB00008F03000844000020CA
:1038D0000FB4084B10B504A902AA039800F01CF815
:1038E000044602A9002000F0B8F9204610BC5DF89B
:1038F00014FB00005B3C000802E008C8121F08C16E
:10390000002AFAD170477047002001E001C1121F60
:10391000002AFBD1704700002DE9FF4F8BB088468D
:103920000546002606E025280BD0DDE90D1290475C
:103930006D1C761C28780028F5D10FB03046BDE804
:10394000F08F0024A146A2460122AE4900E00443C4
:1039500015F8013F203B02FA03F00842F7D128781E
:103960002A2810D06FF02F022878A0F13001092901
:1039700015D809EB890102EB410144F0020400EB88
:1039800001096D1CF0E758F8041B5FEA010903D533
:1039900044F40054C9F1000944F002046D1C287875
:1039A0002E2817D115F8010F44F004042A280ED050
:1039B0006FF02F022878A0F1300109290AD80AEB0C
:1039C0008A0102EB410100EB010A6D1CF2E758F895
:1039D00004AB6D1C28786C280FD006DC4C2817D05F
:1039E00068280DD06A2814D104E0742810D07A28F1
:1039F0000FD10DE044F400140AE044F4801401E017
:103A000044F440146978814202D104F580146D1C9D
:103A10006D1C2878692865D006DC00288DD06328C5
:103A200027D0642806D15DE06E2808D073282AD0FC
:103A3000752877D0DDE90D129047761CE0E0C4F3DD
:103A40000250022809D003280DD0D8F8001004280D
:103A50000DD00E6008F10408D2E0D8F80010F2177B
:103A6000C1E90062F6E7D8F800100E80F2E70E70A8
:103A7000F0E718F8041B8DF8001000208DF8010005
:103A8000EB46012003E058F804BB4FF0FF3061071C
:103A90004FF0000701D40AE07F1C57450DDA87423A
:103AA000FADB1BF807100029F6D106E07F1C8742DD
:103AB000FCDB1BF807100029F8D1DDE90D23A9EB89
:103AC00007008146214600F0B1F83044C61904E0F1
:103AD000DDE90D121BF8010B90477F1EF8D221463D
:103AE000484688E058F8040BC4F302514FF00A0B23
:103AF000032900D100B2042900D140B2002802DA23
:103B000040422D2102E0210505D52B218DF82410FE
:103B1000012104E006E0E10710D02021F6E708AF1C
:103B2000089113E058F8040BC4F302514FF00A0B4C
:103B3000032900D180B2042900D1C0B20021EEE7F0
:103B40005946FFF7DBFD303107F8011D0028F7D19A
:103B5000ADEB070000F1200B600702D524F48034A0
:103B600001E04FF0010ADA4502DDAAEB0B0000E0AC
:103B70000020824600EB0B0108980144A9EB0100EC
:103B80000A90E00306D4DDE90D2321460A9800F0EF
:103B90004DF806444FF0000908E009A911F80900A2
:103BA000DDE90D12904709F10109761C0899894554
:103BB000F3DBE0030CD5DDE90D2321460A9800F084
:103BC00035F8064404E0DDE90D1230209047761CFC
:103BD000BAF10001AAF1010AF5DC05E0DDE90D12F8
:103BE00017F8010B9047761CBBF10001ABF1010BFC
:103BF000F4DC0A982146DDE90D2300F005F80644BF
:103C00006D1C97E6092801002DE9F04104460025C6
:103C10001E461746880404D405E039462020B047E4
:103C20006D1C641EF9D52846BDE8F0812DE9F041F0
:103C3000044600251E469046C80301D5302700E003
:103C40002027880404D505E041463846B0476D1C5E
:103C5000641EF9D52846BDE8F0810A68531C0B6044
:103C600010707047843C00080000002048000000ED
:103C7000F8380008CC3C000848000020E8040000A8
:103C800008390008000000000000000000000000EB
:103C900000000034431010013443101001000000F4
:103CA00000010203040102030406070809020406D6
:103CB0000800000000A24A0400000000000000000C
:0C3CC000010203040607080900000000D0
:0400000508000131BD
:00000001FF
